{"contracts/DEX.sol":{"DEX":{"abi":[{"inputs":[{"internalType":"address","name":"_tokenA","type":"address"},{"internalType":"address","name":"_tokenB","type":"address"}],"stateMutability":"nonpayable","type":"constructor"},{"anonymous":false,"inputs":[{"indexed":true,"internalType":"address","name":"provider","type":"address"},{"indexed":false,"internalType":"uint256","name":"amountA","type":"uint256"},{"indexed":false,"internalType":"uint256","name":"amountB","type":"uint256"},{"indexed":false,"internalType":"uint256","name":"liquidityMinted","type":"uint256"}],"name":"LiquidityAdded","type":"event"},{"anonymous":false,"inputs":[{"indexed":true,"internalType":"address","name":"provider","type":"address"},{"indexed":false,"internalType":"uint256","name":"amountA","type":"uint256"},{"indexed":false,"internalType":"uint256","name":"amountB","type":"uint256"},{"indexed":false,"internalType":"uint256","name":"liquidityBurned","type":"uint256"}],"name":"LiquidityRemoved","type":"event"},{"anonymous":false,"inputs":[{"indexed":true,"internalType":"address","name":"trader","type":"address"},{"indexed":true,"internalType":"address","name":"tokenIn","type":"address"},{"indexed":true,"internalType":"address","name":"tokenOut","type":"address"},{"indexed":false,"internalType":"uint256","name":"amountIn","type":"uint256"},{"indexed":false,"internalType":"uint256","name":"amountOut","type":"uint256"}],"name":"Swap","type":"event"},{"inputs":[{"internalType":"uint256","name":"amountA","type":"uint256"},{"internalType":"uint256","name":"amountB","type":"uint256"}],"name":"addLiquidity","outputs":[{"internalType":"uint256","name":"liquidityMinted","type":"uint256"}],"stateMutability":"nonpayable","type":"function"},{"inputs":[{"internalType":"uint256","name":"amountIn","type":"uint256"},{"internalType":"uint256","name":"reserveIn","type":"uint256"},{"internalType":"uint256","name":"reserveOut","type":"uint256"}],"name":"getAmountOut","outputs":[{"internalType":"uint256","name":"amountOut","type":"uint256"}],"stateMutability":"pure","type":"function"},{"inputs":[],"name":"getPrice","outputs":[{"internalType":"uint256","name":"price","type":"uint256"}],"stateMutability":"view","type":"function"},{"inputs":[],"name":"getReserves","outputs":[{"internalType":"uint256","name":"_reserveA","type":"uint256"},{"internalType":"uint256","name":"_reserveB","type":"uint256"}],"stateMutability":"view","type":"function"},{"inputs":[{"internalType":"address","name":"","type":"address"}],"name":"liquidity","outputs":[{"internalType":"uint256","name":"","type":"uint256"}],"stateMutability":"view","type":"function"},{"inputs":[{"internalType":"uint256","name":"liquidityAmount","type":"uint256"}],"name":"removeLiquidity","outputs":[{"internalType":"uint256","name":"amountA","type":"uint256"},{"internalType":"uint256","name":"amountB","type":"uint256"}],"stateMutability":"nonpayable","type":"function"},{"inputs":[],"name":"reserveA","outputs":[{"internalType":"uint256","name":"","type":"uint256"}],"stateMutability":"view","type":"function"},{"inputs":[],"name":"reserveB","outputs":[{"internalType":"uint256","name":"","type":"uint256"}],"stateMutability":"view","type":"function"},{"inputs":[{"internalType":"uint256","name":"amountAIn","type":"uint256"}],"name":"swapAForB","outputs":[{"internalType":"uint256","name":"amountBOut","type":"uint256"}],"stateMutability":"nonpayable","type":"function"},{"inputs":[{"internalType":"uint256","name":"amountBIn","type":"uint256"}],"name":"swapBForA","outputs":[{"internalType":"uint256","name":"amountAOut","type":"uint256"}],"stateMutability":"nonpayable","type":"function"},{"inputs":[],"name":"tokenA","outputs":[{"internalType":"address","name":"","type":"address"}],"stateMutability":"view","type":"function"},{"inputs":[],"name":"tokenB","outputs":[{"internalType":"address","name":"","type":"address"}],"stateMutability":"view","type":"function"},{"inputs":[],"name":"totalLiquidity","outputs":[{"internalType":"uint256","name":"","type":"uint256"}],"stateMutability":"view","type":"function"}],"evm":{"bytecode":{"linkReferences":{},"object":"60806040523480156200001157600080fd5b5060405162002a1d38038062002a1d83398181016040528101906200003791906200026b565b60016000819055506200005b678e6fafc1a487096760c01b620001fe60201b60201c565b620000776717d6e1c00d70a89360c01b620001fe60201b60201c565b6200009367735b99c85f381aa760c01b620001fe60201b60201c565b620000af6764aae7211ab6c09260c01b620001fe60201b60201c565b8073ffffffffffffffffffffffffffffffffffffffff168273ffffffffffffffffffffffffffffffffffffffff160362000120576040517f08c379a0000000000000000000000000000000000000000000000000000000008152600401620001179062000313565b60405180910390fd5b6200013c67601e86057923728c60c01b620001fe60201b60201c565b62000158676f19f44f64dac67060c01b620001fe60201b60201c565b81600160006101000a81548173ffffffffffffffffffffffffffffffffffffffff021916908373ffffffffffffffffffffffffffffffffffffffff160217905550620001b567b3b07e3689e90f9760c01b620001fe60201b60201c565b80600260006101000a81548173ffffffffffffffffffffffffffffffffffffffff021916908373ffffffffffffffffffffffffffffffffffffffff160217905550505062000335565b50565b600080fd5b600073ffffffffffffffffffffffffffffffffffffffff82169050919050565b6000620002338262000206565b9050919050565b620002458162000226565b81146200025157600080fd5b50565b60008151905062000265816200023a565b92915050565b6000806040838503121562000285576200028462000201565b5b6000620002958582860162000254565b9250506020620002a88582860162000254565b9150509250929050565b600082825260208201905092915050565b7f4944454e544943414c5f544f4b454e5300000000000000000000000000000000600082015250565b6000620002fb601083620002b2565b91506200030882620002c3565b602082019050919050565b600060208201905081810360008301526200032e81620002ec565b9050919050565b6126d880620003456000396000f3fe608060405234801561001057600080fd5b50600436106100cf5760003560e01c80635f64b55b1161008c5780639cd441da116100665780639cd441da1461021a578063b8c876b11461024a578063dc5fa6c51461027a578063e619a49814610298576100cf565b80635f64b55b146101ad57806398d5fdca146101cb5780639c8f9f23146101e9576100cf565b806303102091146100d4578063054d50d4146101045780630902f1ac146101345780630fc63d101461015357806315770f921461017157806319e36f3b1461018f575b600080fd5b6100ee60048036038101906100e99190611ca5565b6102c8565b6040516100fb9190611ce1565b60405180910390f35b61011e60048036038101906101199190611cfc565b610603565b60405161012b9190611ce1565b60405180910390f35b61013c61082e565b60405161014a929190611d4f565b60405180910390f35b61015b61087b565b6040516101689190611db9565b60405180910390f35b6101796108a1565b6040516101869190611ce1565b60405180910390f35b6101976108a7565b6040516101a49190611ce1565b60405180910390f35b6101b56108ad565b6040516101c29190611db9565b60405180910390f35b6101d36108d3565b6040516101e09190611ce1565b60405180910390f35b61020360048036038101906101fe9190611ca5565b61099e565b604051610211929190611d4f565b60405180910390f35b610234600480360381019061022f9190611dd4565b610e0e565b6040516102419190611ce1565b60405180910390f35b610264600480360381019061025f9190611e40565b611354565b6040516102719190611ce1565b60405180910390f35b61028261136c565b60405161028f9190611ce1565b60405180910390f35b6102b260048036038101906102ad9190611ca5565b611372565b6040516102bf9190611ce1565b60405180910390f35b60006102de67139093f8c318a35f60c01b6116ab565b6102e66116ae565b6102fa672f0fee372902d75b60c01b6116ab565b61030e675d4c44fbc792c19460c01b6116ab565b61032267540de40f9deb4b0f60c01b6116ab565b61033667b5350f6dddb6bef760c01b6116ab565b61034a672f8bf35e258bf1e360c01b6116ab565b6000821161038d576040517f08c379a000000000000000000000000000000000000000000000000000000000815260040161038490611eca565b60405180910390fd5b6103a1676812d3aa5912318e60c01b6116ab565b6103b5670205ed9868928db060c01b6116ab565b6103c96706cb56ce6eff387560c01b6116ab565b610418333084600160009054906101000a900473ffffffffffffffffffffffffffffffffffffffff1673ffffffffffffffffffffffffffffffffffffffff166116fd909392919063ffffffff16565b61042c67348fcccdf5e31bef60c01b6116ab565b61043b82600354600454610603565b9050610451678a5f0c37b2a3fa8f60c01b6116ab565b81600360008282546104639190611f19565b9250508190555061047e67bf9ca274f8c160d760c01b6116ab565b80600460008282546104909190611f4d565b925050819055506104ab67cb98078c699b9fd960c01b6116ab565b6104bf6760c50211bf1342cd60c01b6116ab565b61050c3382600260009054906101000a900473ffffffffffffffffffffffffffffffffffffffff1673ffffffffffffffffffffffffffffffffffffffff166117869092919063ffffffff16565b6105206763c7be7e21d9ff7660c01b6116ab565b61053467a3f6e91905fb296460c01b6116ab565b600260009054906101000a900473ffffffffffffffffffffffffffffffffffffffff1673ffffffffffffffffffffffffffffffffffffffff16600160009054906101000a900473ffffffffffffffffffffffffffffffffffffffff1673ffffffffffffffffffffffffffffffffffffffff163373ffffffffffffffffffffffffffffffffffffffff167fcd3829a3813dc3cdd188fd3d01dcf3268c16be2fdd2dd21d0665418816e4606285856040516105ee929190611d4f565b60405180910390a46105fe61180c565b919050565b600061061967ae2f862056bc329c60c01b6116ab565b61062d67a6c6a7b816d7c10c60c01b6116ab565b610641676fd6ad6b50a86eb760c01b6116ab565b61065567fcf89f619565323a60c01b6116ab565b60008411610698576040517f08c379a000000000000000000000000000000000000000000000000000000000815260040161068f90611fcd565b60405180910390fd5b6106ac672d78754a40e5d4b160c01b6116ab565b6106c067f704b5f91dbc517a60c01b6116ab565b6106d4672e2b0302104f5d2660c01b6116ab565b6106e867844b7c0562a0ad6660c01b6116ab565b6000831180156106f85750600082115b610737576040517f08c379a000000000000000000000000000000000000000000000000000000000815260040161072e90612039565b60405180910390fd5b61074b67f9233b8cceec98a260c01b6116ab565b61075f67a7190270043e562260c01b6116ab565b61077367962ae589aede901c60c01b6116ab565b60006103e5856107839190612059565b90506107996795e11089126012cc60c01b6116ab565b6107ad67668a90e8a324823b60c01b6116ab565b600083826107bb9190612059565b90506107d167adb58cb032993f6560c01b6116ab565b6107e5671beced2b43ab1ee460c01b6116ab565b6000826103e8876107f69190612059565b6108009190611f19565b90506108166785c106fb572b362160c01b6116ab565b808261082291906120ca565b93505050509392505050565b60008061084567452d496a849c444b60c01b6116ab565b61085967a1260debcaa4980260c01b6116ab565b61086d678927c4ee8b411a6960c01b6116ab565b600354600454915091509091565b600160009054906101000a900473ffffffffffffffffffffffffffffffffffffffff1681565b60055481565b60045481565b600260009054906101000a900473ffffffffffffffffffffffffffffffffffffffff1681565b60006108e967f72132c81f838c8560c01b6116ab565b6108fd675f57d30bfd4895d660c01b6116ab565b61091167966f8e2110209e7860c01b6116ab565b60006003540361094c5761092f6749a685362020e17160c01b6116ab565b6109436774d000d77446428d60c01b6116ab565b6000905061099b565b61096067f3a4cccc5cdeeb0e60c01b6116ab565b61097467dd7d7b4fee5e8a2460c01b6116ab565b6109886767b1553ea830595960c01b6116ab565b60035460045461099891906120ca565b90505b90565b6000806109b5674e04e766ccc4936460c01b6116ab565b6109bd6116ae565b6109d167025e94ae2c3ef9ea60c01b6116ab565b6109e567aad70076c195f5e160c01b6116ab565b6109f967da8771bd9241996e60c01b6116ab565b610a0d676ffd78fef64a1f6960c01b6116ab565b610a2167609a7a8e393c82ff60c01b6116ab565b60008311610a64576040517f08c379a0000000000000000000000000000000000000000000000000000000008152600401610a5b90612147565b60405180910390fd5b610a786783aa11b5c109ea3760c01b6116ab565b610a8c67253578a76622ba0d60c01b6116ab565b610aa067f8b7c1ec400072e560c01b6116ab565b610ab46786e4cb6b0031c3e160c01b6116ab565b82600660003373ffffffffffffffffffffffffffffffffffffffff1673ffffffffffffffffffffffffffffffffffffffff168152602001908152602001600020541015610b36576040517f08c379a0000000000000000000000000000000000000000000000000000000008152600401610b2d906121b3565b60405180910390fd5b610b4a675471ef3207d988b860c01b6116ab565b610b5e67ecdf46c5c7cb9e2b60c01b6116ab565b60055460035484610b6f9190612059565b610b7991906120ca565b9150610b8f6732e11753c0fef0d960c01b6116ab565b60055460045484610ba09190612059565b610baa91906120ca565b9050610bc067fbe8bef10071925360c01b6116ab565b82600660003373ffffffffffffffffffffffffffffffffffffffff1673ffffffffffffffffffffffffffffffffffffffff1681526020019081526020016000206000828254610c0f9190611f4d565b92505081905550610c2a672897463866f52f9260c01b6116ab565b8260056000828254610c3c9190611f4d565b92505081905550610c5767d1b876c7b9ad8f7860c01b6116ab565b8160036000828254610c699190611f4d565b92505081905550610c84678988ff66b27e1ffe60c01b6116ab565b8060046000828254610c969190611f4d565b92505081905550610cb167ab7dd7d86132446860c01b6116ab565b610cc567cd1b9915bdda306360c01b6116ab565b610d123383600160009054906101000a900473ffffffffffffffffffffffffffffffffffffffff1673ffffffffffffffffffffffffffffffffffffffff166117869092919063ffffffff16565b610d26677f95eb80cf75835260c01b6116ab565b610d3a67fed106ca89cd01d360c01b6116ab565b610d873382600260009054906101000a900473ffffffffffffffffffffffffffffffffffffffff1673ffffffffffffffffffffffffffffffffffffffff166117869092919063ffffffff16565b610d9b671aeb314cfcf5f1e360c01b6116ab565b610daf67883e8d9e704bd4b460c01b6116ab565b3373ffffffffffffffffffffffffffffffffffffffff167f1dc8bb69df2b8e91fbdcbfcf93d951b3f0000f085a95fe3f7946d6161439245d838386604051610df9939291906121d3565b60405180910390a2610e0961180c565b915091565b6000610e24679a72685b8188c68460c01b6116ab565b610e2c6116ae565b610e40672264e43063b5528e60c01b6116ab565b610e5467efe348eb2eee6de460c01b6116ab565b610e686716322f469713450e60c01b6116ab565b610e7c67e2ea5a187084f88360c01b6116ab565b610e90671065aefffecf03f160c01b6116ab565b600083118015610ea05750600082115b610edf576040517f08c379a0000000000000000000000000000000000000000000000000000000008152600401610ed690612147565b60405180910390fd5b610ef36709c5e3f141a5414060c01b6116ab565b610f0767c57c62822ce8735e60c01b6116ab565b610f1b6768e0dcaf2209bd3260c01b6116ab565b610f6a333085600160009054906101000a900473ffffffffffffffffffffffffffffffffffffffff1673ffffffffffffffffffffffffffffffffffffffff166116fd909392919063ffffffff16565b610f7e675211de116b8ace3060c01b6116ab565b610f926736e434ec7e1080ac60c01b6116ab565b610fe1333084600260009054906101000a900473ffffffffffffffffffffffffffffffffffffffff1673ffffffffffffffffffffffffffffffffffffffff166116fd909392919063ffffffff16565b610ff567383ea8b3463c53d760c01b6116ab565b6110096723de50e2367edc8b60c01b6116ab565b60006005540361105657611027679d49e572bbf8f74060c01b6116ab565b61103b67c08488370c4c61d460c01b6116ab565b61104f828461104a9190612059565b611816565b9050611148565b61106a674ef366d251689b0560c01b6116ab565b61107e67e4725307c122627860c01b6116ab565b611092674e198db302260c7560c01b6116ab565b6110a667330e18e8489c545e60c01b6116ab565b826004546110b49190612059565b826003546110c29190612059565b14611102576040517f08c379a00000000000000000000000000000000000000000000000000000000081526004016110f990612256565b60405180910390fd5b6111166762b9d595eb09f23260c01b6116ab565b61112a674a346fab76c7ac1f60c01b6116ab565b6003546005548461113b9190612059565b61114591906120ca565b90505b61115c67520e24a6206ce8ba60c01b6116ab565b61117067267ef47893cb107460c01b6116ab565b61118467ce7e4cbb247f5d3560c01b6116ab565b600081116111c7576040517f08c379a00000000000000000000000000000000000000000000000000000000081526004016111be906122c2565b60405180910390fd5b6111db6747fd82eea3e8e2bc60c01b6116ab565b6111ef677725df995bb2140d60c01b6116ab565b80600660003373ffffffffffffffffffffffffffffffffffffffff1673ffffffffffffffffffffffffffffffffffffffff168152602001908152602001600020600082825461123e9190611f19565b9250508190555061125967b60df91049f9d98460c01b6116ab565b806005600082825461126b9190611f19565b92505081905550611286678a2fea300585ddaf60c01b6116ab565b82600360008282546112989190611f19565b925050819055506112b367797680eab0d2935a60c01b6116ab565b81600460008282546112c59190611f19565b925050819055506112e06785fd3f9c7afcf98260c01b6116ab565b6112f467504e9a73d6f1612260c01b6116ab565b3373ffffffffffffffffffffffffffffffffffffffff167f64b83944e79c3ce8d4c297411de637c3e102d064677aac0c163976ebdcd6f50e84848460405161133e939291906121d3565b60405180910390a261134e61180c565b92915050565b60066020528060005260406000206000915090505481565b60035481565b600061138867a4538951accf92d460c01b6116ab565b6113906116ae565b6113a4676e7ad74c06968a7360c01b6116ab565b6113b867b517114da1462b2560c01b6116ab565b6113cc671afbb9b317ee1fe660c01b6116ab565b6113e0675fd550124c3083fe60c01b6116ab565b6113f366e86e4fa9e06be660c01b6116ab565b60008211611436576040517f08c379a000000000000000000000000000000000000000000000000000000000815260040161142d90611eca565b60405180910390fd5b61144a674a452febc99fab6e60c01b6116ab565b61145e6762581e5f9f445eca60c01b6116ab565b61147166f17dc7de4d653b60c01b6116ab565b6114c0333084600260009054906101000a900473ffffffffffffffffffffffffffffffffffffffff1673ffffffffffffffffffffffffffffffffffffffff166116fd909392919063ffffffff16565b6114d467608a9ba0d05a36a360c01b6116ab565b6114e382600454600354610603565b90506114f967cf504e9267127e1960c01b6116ab565b816004600082825461150b9190611f19565b9250508190555061152667fd00cde3cefd1f9460c01b6116ab565b80600360008282546115389190611f4d565b925050819055506115536711a9983ed81fb39860c01b6116ab565b61156767e012944b18ca8d0660c01b6116ab565b6115b43382600160009054906101000a900473ffffffffffffffffffffffffffffffffffffffff1673ffffffffffffffffffffffffffffffffffffffff166117869092919063ffffffff16565b6115c86747020d1180844a5860c01b6116ab565b6115dc67a289f6d1e1ef9b1860c01b6116ab565b600160009054906101000a900473ffffffffffffffffffffffffffffffffffffffff1673ffffffffffffffffffffffffffffffffffffffff16600260009054906101000a900473ffffffffffffffffffffffffffffffffffffffff1673ffffffffffffffffffffffffffffffffffffffff163373ffffffffffffffffffffffffffffffffffffffff167fcd3829a3813dc3cdd188fd3d01dcf3268c16be2fdd2dd21d0665418816e460628585604051611696929190611d4f565b60405180910390a46116a661180c565b919050565b50565b6002600054036116f3576040517f08c379a00000000000000000000000000000000000000000000000000000000081526004016116ea9061232e565b60405180910390fd5b6002600081905550565b611780846323b872dd60e01b85858560405160240161171e9392919061234e565b604051602081830303815290604052907bffffffffffffffffffffffffffffffffffffffffffffffffffffffff19166020820180517bffffffffffffffffffffffffffffffffffffffffffffffffffffffff83818316178352505050506119d5565b50505050565b6118078363a9059cbb60e01b84846040516024016117a5929190612385565b604051602081830303815290604052907bffffffffffffffffffffffffffffffffffffffffffffffffffffffff19166020820180517bffffffffffffffffffffffffffffffffffffffffffffffffffffffff83818316178352505050506119d5565b505050565b6001600081905550565b600061182c67fd751de5660b754f60c01b6116ab565b61184067bce905d3d986821560c01b6116ab565b61185467b76741278ae68e7060c01b6116ab565b600382111561195957611871671f93820476d3f89f60c01b6116ab565b611885674793231edad212cf60c01b6116ab565b81905061189c67df48d36dc46a60cb60c01b6116ab565b6118b067b5751d211458857960c01b6116ab565b600060016002846118c191906120ca565b6118cb9190611f19565b90506118e167f376a1034a52fb7e60c01b6116ab565b6118f5678e500d896e06961460c01b6116ab565b5b818110156119535761191267c6e2be7ade49c94b60c01b6116ab565b809150611929677945b785d72a1cfa60c01b6116ab565b600281828561193891906120ca565b6119429190611f19565b61194c91906120ca565b90506118f6565b506119d0565b61196d67fb80f74426cd0fe460c01b6116ab565b61198167bd0b12833157d97160c01b6116ab565b600082146119ba5761199d675ebc1e36145d74b660c01b6116ab565b6119b16729b934b83460bb9f60c01b6116ab565b600190506119cf565b6119ce671bd436b9dabeb2e060c01b6116ab565b5b5b919050565b6000611a37826040518060400160405280602081526020017f5361666545524332303a206c6f772d6c6576656c2063616c6c206661696c65648152508573ffffffffffffffffffffffffffffffffffffffff16611a9d9092919063ffffffff16565b9050600081511480611a59575080806020019051810190611a5891906123e6565b5b611a98576040517f08c379a0000000000000000000000000000000000000000000000000000000008152600401611a8f90612485565b60405180910390fd5b505050565b6060611aac8484600085611ab5565b90509392505050565b606082471015611afa576040517f08c379a0000000000000000000000000000000000000000000000000000000008152600401611af190612517565b60405180910390fd5b6000808673ffffffffffffffffffffffffffffffffffffffff168587604051611b2391906125a8565b60006040518083038185875af1925050503d8060008114611b60576040519150601f19603f3d011682016040523d82523d6000602084013e611b65565b606091505b5091509150611b7687838387611b82565b92505050949350505050565b60608315611be4576000835103611bdc57611b9c85611bf7565b611bdb576040517f08c379a0000000000000000000000000000000000000000000000000000000008152600401611bd29061260b565b60405180910390fd5b5b829050611bef565b611bee8383611c1a565b5b949350505050565b6000808273ffffffffffffffffffffffffffffffffffffffff163b119050919050565b600082511115611c2d5781518083602001fd5b806040517f08c379a0000000000000000000000000000000000000000000000000000000008152600401611c619190612680565b60405180910390fd5b600080fd5b6000819050919050565b611c8281611c6f565b8114611c8d57600080fd5b50565b600081359050611c9f81611c79565b92915050565b600060208284031215611cbb57611cba611c6a565b5b6000611cc984828501611c90565b91505092915050565b611cdb81611c6f565b82525050565b6000602082019050611cf66000830184611cd2565b92915050565b600080600060608486031215611d1557611d14611c6a565b5b6000611d2386828701611c90565b9350506020611d3486828701611c90565b9250506040611d4586828701611c90565b9150509250925092565b6000604082019050611d646000830185611cd2565b611d716020830184611cd2565b9392505050565b600073ffffffffffffffffffffffffffffffffffffffff82169050919050565b6000611da382611d78565b9050919050565b611db381611d98565b82525050565b6000602082019050611dce6000830184611daa565b92915050565b60008060408385031215611deb57611dea611c6a565b5b6000611df985828601611c90565b9250506020611e0a85828601611c90565b9150509250929050565b611e1d81611d98565b8114611e2857600080fd5b50565b600081359050611e3a81611e14565b92915050565b600060208284031215611e5657611e55611c6a565b5b6000611e6484828501611e2b565b91505092915050565b600082825260208201905092915050565b7f5a45524f5f535741500000000000000000000000000000000000000000000000600082015250565b6000611eb4600983611e6d565b9150611ebf82611e7e565b602082019050919050565b60006020820190508181036000830152611ee381611ea7565b9050919050565b7f4e487b7100000000000000000000000000000000000000000000000000000000600052601160045260246000fd5b6000611f2482611c6f565b9150611f2f83611c6f565b9250828201905080821115611f4757611f46611eea565b5b92915050565b6000611f5882611c6f565b9150611f6383611c6f565b9250828203905081811115611f7b57611f7a611eea565b5b92915050565b7f5a45524f5f494e00000000000000000000000000000000000000000000000000600082015250565b6000611fb7600783611e6d565b9150611fc282611f81565b602082019050919050565b60006020820190508181036000830152611fe681611faa565b9050919050565b7f4e4f5f4c49510000000000000000000000000000000000000000000000000000600082015250565b6000612023600683611e6d565b915061202e82611fed565b602082019050919050565b6000602082019050818103600083015261205281612016565b9050919050565b600061206482611c6f565b915061206f83611c6f565b925082820261207d81611c6f565b9150828204841483151761209457612093611eea565b5b5092915050565b7f4e487b7100000000000000000000000000000000000000000000000000000000600052601260045260246000fd5b60006120d582611c6f565b91506120e083611c6f565b9250826120f0576120ef61209b565b5b828204905092915050565b7f5a45524f5f414d4f554e54000000000000000000000000000000000000000000600082015250565b6000612131600b83611e6d565b915061213c826120fb565b602082019050919050565b6000602082019050818103600083015261216081612124565b9050919050565b7f4e4f545f454e4f5547485f4c5000000000000000000000000000000000000000600082015250565b600061219d600d83611e6d565b91506121a882612167565b602082019050919050565b600060208201905081810360008301526121cc81612190565b9050919050565b60006060820190506121e86000830186611cd2565b6121f56020830185611cd2565b6122026040830184611cd2565b949350505050565b7f4241445f524154494f0000000000000000000000000000000000000000000000600082015250565b6000612240600983611e6d565b915061224b8261220a565b602082019050919050565b6000602082019050818103600083015261226f81612233565b9050919050565b7f5a45524f5f4c4951554944495459000000000000000000000000000000000000600082015250565b60006122ac600e83611e6d565b91506122b782612276565b602082019050919050565b600060208201905081810360008301526122db8161229f565b9050919050565b7f5265656e7472616e637947756172643a207265656e7472616e742063616c6c00600082015250565b6000612318601f83611e6d565b9150612323826122e2565b602082019050919050565b600060208201905081810360008301526123478161230b565b9050919050565b60006060820190506123636000830186611daa565b6123706020830185611daa565b61237d6040830184611cd2565b949350505050565b600060408201905061239a6000830185611daa565b6123a76020830184611cd2565b9392505050565b60008115159050919050565b6123c3816123ae565b81146123ce57600080fd5b50565b6000815190506123e0816123ba565b92915050565b6000602082840312156123fc576123fb611c6a565b5b600061240a848285016123d1565b91505092915050565b7f5361666545524332303a204552433230206f7065726174696f6e20646964206e60008201527f6f74207375636365656400000000000000000000000000000000000000000000602082015250565b600061246f602a83611e6d565b915061247a82612413565b604082019050919050565b6000602082019050818103600083015261249e81612462565b9050919050565b7f416464726573733a20696e73756666696369656e742062616c616e636520666f60008201527f722063616c6c0000000000000000000000000000000000000000000000000000602082015250565b6000612501602683611e6d565b915061250c826124a5565b604082019050919050565b60006020820190508181036000830152612530816124f4565b9050919050565b600081519050919050565b600081905092915050565b60005b8381101561256b578082015181840152602081019050612550565b60008484015250505050565b600061258282612537565b61258c8185612542565b935061259c81856020860161254d565b80840191505092915050565b60006125b48284612577565b915081905092915050565b7f416464726573733a2063616c6c20746f206e6f6e2d636f6e7472616374000000600082015250565b60006125f5601d83611e6d565b9150612600826125bf565b602082019050919050565b60006020820190508181036000830152612624816125e8565b9050919050565b600081519050919050565b6000601f19601f8301169050919050565b60006126528261262b565b61265c8185611e6d565b935061266c81856020860161254d565b61267581612636565b840191505092915050565b6000602082019050818103600083015261269a8184612647565b90509291505056fea2646970667358221220a06fd940c3dfc0f79d446f5debc2eca02d87810e50b1dbc705667f1064f2800664736f6c63430008130033","opcodes":"PUSH1 0x80 PUSH1 0x40 MSTORE CALLVALUE DUP1 ISZERO PUSH3 0x11 JUMPI PUSH1 0x0 DUP1 REVERT JUMPDEST POP PUSH1 0x40 MLOAD PUSH3 0x2A1D CODESIZE SUB DUP1 PUSH3 0x2A1D DUP4 CODECOPY DUP2 DUP2 ADD PUSH1 0x40 MSTORE DUP2 ADD SWAP1 PUSH3 0x37 SWAP2 SWAP1 PUSH3 0x26B JUMP JUMPDEST PUSH1 0x1 PUSH1 0x0 DUP2 SWAP1 SSTORE POP PUSH3 0x5B PUSH8 0x8E6FAFC1A4870967 PUSH1 0xC0 SHL PUSH3 0x1FE PUSH1 0x20 SHL PUSH1 0x20 SHR JUMP JUMPDEST PUSH3 0x77 PUSH8 0x17D6E1C00D70A893 PUSH1 0xC0 SHL PUSH3 0x1FE PUSH1 0x20 SHL PUSH1 0x20 SHR JUMP JUMPDEST PUSH3 0x93 PUSH8 0x735B99C85F381AA7 PUSH1 0xC0 SHL PUSH3 0x1FE PUSH1 0x20 SHL PUSH1 0x20 SHR JUMP JUMPDEST PUSH3 0xAF PUSH8 0x64AAE7211AB6C092 PUSH1 0xC0 SHL PUSH3 0x1FE PUSH1 0x20 SHL PUSH1 0x20 SHR JUMP JUMPDEST DUP1 PUSH20 0xFFFFFFFFFFFFFFFFFFFFFFFFFFFFFFFFFFFFFFFF AND DUP3 PUSH20 0xFFFFFFFFFFFFFFFFFFFFFFFFFFFFFFFFFFFFFFFF AND SUB PUSH3 0x120 JUMPI PUSH1 0x40 MLOAD PUSH32 0x8C379A000000000000000000000000000000000000000000000000000000000 DUP2 MSTORE PUSH1 0x4 ADD PUSH3 0x117 SWAP1 PUSH3 0x313 JUMP JUMPDEST PUSH1 0x40 MLOAD DUP1 SWAP2 SUB SWAP1 REVERT JUMPDEST PUSH3 0x13C PUSH8 0x601E86057923728C PUSH1 0xC0 SHL PUSH3 0x1FE PUSH1 0x20 SHL PUSH1 0x20 SHR JUMP JUMPDEST PUSH3 0x158 PUSH8 0x6F19F44F64DAC670 PUSH1 0xC0 SHL PUSH3 0x1FE PUSH1 0x20 SHL PUSH1 0x20 SHR JUMP JUMPDEST DUP2 PUSH1 0x1 PUSH1 0x0 PUSH2 0x100 EXP DUP2 SLOAD DUP2 PUSH20 0xFFFFFFFFFFFFFFFFFFFFFFFFFFFFFFFFFFFFFFFF MUL NOT AND SWAP1 DUP4 PUSH20 0xFFFFFFFFFFFFFFFFFFFFFFFFFFFFFFFFFFFFFFFF AND MUL OR SWAP1 SSTORE POP PUSH3 0x1B5 PUSH8 0xB3B07E3689E90F97 PUSH1 0xC0 SHL PUSH3 0x1FE PUSH1 0x20 SHL PUSH1 0x20 SHR JUMP JUMPDEST DUP1 PUSH1 0x2 PUSH1 0x0 PUSH2 0x100 EXP DUP2 SLOAD DUP2 PUSH20 0xFFFFFFFFFFFFFFFFFFFFFFFFFFFFFFFFFFFFFFFF MUL NOT AND SWAP1 DUP4 PUSH20 0xFFFFFFFFFFFFFFFFFFFFFFFFFFFFFFFFFFFFFFFF AND MUL OR SWAP1 SSTORE POP POP POP PUSH3 0x335 JUMP JUMPDEST POP JUMP JUMPDEST PUSH1 0x0 DUP1 REVERT JUMPDEST PUSH1 0x0 PUSH20 0xFFFFFFFFFFFFFFFFFFFFFFFFFFFFFFFFFFFFFFFF DUP3 AND SWAP1 POP SWAP2 SWAP1 POP JUMP JUMPDEST PUSH1 0x0 PUSH3 0x233 DUP3 PUSH3 0x206 JUMP JUMPDEST SWAP1 POP SWAP2 SWAP1 POP JUMP JUMPDEST PUSH3 0x245 DUP2 PUSH3 0x226 JUMP JUMPDEST DUP2 EQ PUSH3 0x251 JUMPI PUSH1 0x0 DUP1 REVERT JUMPDEST POP JUMP JUMPDEST PUSH1 0x0 DUP2 MLOAD SWAP1 POP PUSH3 0x265 DUP2 PUSH3 0x23A JUMP JUMPDEST SWAP3 SWAP2 POP POP JUMP JUMPDEST PUSH1 0x0 DUP1 PUSH1 0x40 DUP4 DUP6 SUB SLT ISZERO PUSH3 0x285 JUMPI PUSH3 0x284 PUSH3 0x201 JUMP JUMPDEST JUMPDEST PUSH1 0x0 PUSH3 0x295 DUP6 DUP3 DUP7 ADD PUSH3 0x254 JUMP JUMPDEST SWAP3 POP POP PUSH1 0x20 PUSH3 0x2A8 DUP6 DUP3 DUP7 ADD PUSH3 0x254 JUMP JUMPDEST SWAP2 POP POP SWAP3 POP SWAP3 SWAP1 POP JUMP JUMPDEST PUSH1 0x0 DUP3 DUP3 MSTORE PUSH1 0x20 DUP3 ADD SWAP1 POP SWAP3 SWAP2 POP POP JUMP JUMPDEST PUSH32 0x4944454E544943414C5F544F4B454E5300000000000000000000000000000000 PUSH1 0x0 DUP3 ADD MSTORE POP JUMP JUMPDEST PUSH1 0x0 PUSH3 0x2FB PUSH1 0x10 DUP4 PUSH3 0x2B2 JUMP JUMPDEST SWAP2 POP PUSH3 0x308 DUP3 PUSH3 0x2C3 JUMP JUMPDEST PUSH1 0x20 DUP3 ADD SWAP1 POP SWAP2 SWAP1 POP JUMP JUMPDEST PUSH1 0x0 PUSH1 0x20 DUP3 ADD SWAP1 POP DUP2 DUP2 SUB PUSH1 0x0 DUP4 ADD MSTORE PUSH3 0x32E DUP2 PUSH3 0x2EC JUMP JUMPDEST SWAP1 POP SWAP2 SWAP1 POP JUMP JUMPDEST PUSH2 0x26D8 DUP1 PUSH3 0x345 PUSH1 0x0 CODECOPY PUSH1 0x0 RETURN INVALID PUSH1 0x80 PUSH1 0x40 MSTORE CALLVALUE DUP1 ISZERO PUSH2 0x10 JUMPI PUSH1 0x0 DUP1 REVERT JUMPDEST POP PUSH1 0x4 CALLDATASIZE LT PUSH2 0xCF JUMPI PUSH1 0x0 CALLDATALOAD PUSH1 0xE0 SHR DUP1 PUSH4 0x5F64B55B GT PUSH2 0x8C JUMPI DUP1 PUSH4 0x9CD441DA GT PUSH2 0x66 JUMPI DUP1 PUSH4 0x9CD441DA EQ PUSH2 0x21A JUMPI DUP1 PUSH4 0xB8C876B1 EQ PUSH2 0x24A JUMPI DUP1 PUSH4 0xDC5FA6C5 EQ PUSH2 0x27A JUMPI DUP1 PUSH4 0xE619A498 EQ PUSH2 0x298 JUMPI PUSH2 0xCF JUMP JUMPDEST DUP1 PUSH4 0x5F64B55B EQ PUSH2 0x1AD JUMPI DUP1 PUSH4 0x98D5FDCA EQ PUSH2 0x1CB JUMPI DUP1 PUSH4 0x9C8F9F23 EQ PUSH2 0x1E9 JUMPI PUSH2 0xCF JUMP JUMPDEST DUP1 PUSH4 0x3102091 EQ PUSH2 0xD4 JUMPI DUP1 PUSH4 0x54D50D4 EQ PUSH2 0x104 JUMPI DUP1 PUSH4 0x902F1AC EQ PUSH2 0x134 JUMPI DUP1 PUSH4 0xFC63D10 EQ PUSH2 0x153 JUMPI DUP1 PUSH4 0x15770F92 EQ PUSH2 0x171 JUMPI DUP1 PUSH4 0x19E36F3B EQ PUSH2 0x18F JUMPI JUMPDEST PUSH1 0x0 DUP1 REVERT JUMPDEST PUSH2 0xEE PUSH1 0x4 DUP1 CALLDATASIZE SUB DUP2 ADD SWAP1 PUSH2 0xE9 SWAP2 SWAP1 PUSH2 0x1CA5 JUMP JUMPDEST PUSH2 0x2C8 JUMP JUMPDEST PUSH1 0x40 MLOAD PUSH2 0xFB SWAP2 SWAP1 PUSH2 0x1CE1 JUMP JUMPDEST PUSH1 0x40 MLOAD DUP1 SWAP2 SUB SWAP1 RETURN JUMPDEST PUSH2 0x11E PUSH1 0x4 DUP1 CALLDATASIZE SUB DUP2 ADD SWAP1 PUSH2 0x119 SWAP2 SWAP1 PUSH2 0x1CFC JUMP JUMPDEST PUSH2 0x603 JUMP JUMPDEST PUSH1 0x40 MLOAD PUSH2 0x12B SWAP2 SWAP1 PUSH2 0x1CE1 JUMP JUMPDEST PUSH1 0x40 MLOAD DUP1 SWAP2 SUB SWAP1 RETURN JUMPDEST PUSH2 0x13C PUSH2 0x82E JUMP JUMPDEST PUSH1 0x40 MLOAD PUSH2 0x14A SWAP3 SWAP2 SWAP1 PUSH2 0x1D4F JUMP JUMPDEST PUSH1 0x40 MLOAD DUP1 SWAP2 SUB SWAP1 RETURN JUMPDEST PUSH2 0x15B PUSH2 0x87B JUMP JUMPDEST PUSH1 0x40 MLOAD PUSH2 0x168 SWAP2 SWAP1 PUSH2 0x1DB9 JUMP JUMPDEST PUSH1 0x40 MLOAD DUP1 SWAP2 SUB SWAP1 RETURN JUMPDEST PUSH2 0x179 PUSH2 0x8A1 JUMP JUMPDEST PUSH1 0x40 MLOAD PUSH2 0x186 SWAP2 SWAP1 PUSH2 0x1CE1 JUMP JUMPDEST PUSH1 0x40 MLOAD DUP1 SWAP2 SUB SWAP1 RETURN JUMPDEST PUSH2 0x197 PUSH2 0x8A7 JUMP JUMPDEST PUSH1 0x40 MLOAD PUSH2 0x1A4 SWAP2 SWAP1 PUSH2 0x1CE1 JUMP JUMPDEST PUSH1 0x40 MLOAD DUP1 SWAP2 SUB SWAP1 RETURN JUMPDEST PUSH2 0x1B5 PUSH2 0x8AD JUMP JUMPDEST PUSH1 0x40 MLOAD PUSH2 0x1C2 SWAP2 SWAP1 PUSH2 0x1DB9 JUMP JUMPDEST PUSH1 0x40 MLOAD DUP1 SWAP2 SUB SWAP1 RETURN JUMPDEST PUSH2 0x1D3 PUSH2 0x8D3 JUMP JUMPDEST PUSH1 0x40 MLOAD PUSH2 0x1E0 SWAP2 SWAP1 PUSH2 0x1CE1 JUMP JUMPDEST PUSH1 0x40 MLOAD DUP1 SWAP2 SUB SWAP1 RETURN JUMPDEST PUSH2 0x203 PUSH1 0x4 DUP1 CALLDATASIZE SUB DUP2 ADD SWAP1 PUSH2 0x1FE SWAP2 SWAP1 PUSH2 0x1CA5 JUMP JUMPDEST PUSH2 0x99E JUMP JUMPDEST PUSH1 0x40 MLOAD PUSH2 0x211 SWAP3 SWAP2 SWAP1 PUSH2 0x1D4F JUMP JUMPDEST PUSH1 0x40 MLOAD DUP1 SWAP2 SUB SWAP1 RETURN JUMPDEST PUSH2 0x234 PUSH1 0x4 DUP1 CALLDATASIZE SUB DUP2 ADD SWAP1 PUSH2 0x22F SWAP2 SWAP1 PUSH2 0x1DD4 JUMP JUMPDEST PUSH2 0xE0E JUMP JUMPDEST PUSH1 0x40 MLOAD PUSH2 0x241 SWAP2 SWAP1 PUSH2 0x1CE1 JUMP JUMPDEST PUSH1 0x40 MLOAD DUP1 SWAP2 SUB SWAP1 RETURN JUMPDEST PUSH2 0x264 PUSH1 0x4 DUP1 CALLDATASIZE SUB DUP2 ADD SWAP1 PUSH2 0x25F SWAP2 SWAP1 PUSH2 0x1E40 JUMP JUMPDEST PUSH2 0x1354 JUMP JUMPDEST PUSH1 0x40 MLOAD PUSH2 0x271 SWAP2 SWAP1 PUSH2 0x1CE1 JUMP JUMPDEST PUSH1 0x40 MLOAD DUP1 SWAP2 SUB SWAP1 RETURN JUMPDEST PUSH2 0x282 PUSH2 0x136C JUMP JUMPDEST PUSH1 0x40 MLOAD PUSH2 0x28F SWAP2 SWAP1 PUSH2 0x1CE1 JUMP JUMPDEST PUSH1 0x40 MLOAD DUP1 SWAP2 SUB SWAP1 RETURN JUMPDEST PUSH2 0x2B2 PUSH1 0x4 DUP1 CALLDATASIZE SUB DUP2 ADD SWAP1 PUSH2 0x2AD SWAP2 SWAP1 PUSH2 0x1CA5 JUMP JUMPDEST PUSH2 0x1372 JUMP JUMPDEST PUSH1 0x40 MLOAD PUSH2 0x2BF SWAP2 SWAP1 PUSH2 0x1CE1 JUMP JUMPDEST PUSH1 0x40 MLOAD DUP1 SWAP2 SUB SWAP1 RETURN JUMPDEST PUSH1 0x0 PUSH2 0x2DE PUSH8 0x139093F8C318A35F PUSH1 0xC0 SHL PUSH2 0x16AB JUMP JUMPDEST PUSH2 0x2E6 PUSH2 0x16AE JUMP JUMPDEST PUSH2 0x2FA PUSH8 0x2F0FEE372902D75B PUSH1 0xC0 SHL PUSH2 0x16AB JUMP JUMPDEST PUSH2 0x30E PUSH8 0x5D4C44FBC792C194 PUSH1 0xC0 SHL PUSH2 0x16AB JUMP JUMPDEST PUSH2 0x322 PUSH8 0x540DE40F9DEB4B0F PUSH1 0xC0 SHL PUSH2 0x16AB JUMP JUMPDEST PUSH2 0x336 PUSH8 0xB5350F6DDDB6BEF7 PUSH1 0xC0 SHL PUSH2 0x16AB JUMP JUMPDEST PUSH2 0x34A PUSH8 0x2F8BF35E258BF1E3 PUSH1 0xC0 SHL PUSH2 0x16AB JUMP JUMPDEST PUSH1 0x0 DUP3 GT PUSH2 0x38D JUMPI PUSH1 0x40 MLOAD PUSH32 0x8C379A000000000000000000000000000000000000000000000000000000000 DUP2 MSTORE PUSH1 0x4 ADD PUSH2 0x384 SWAP1 PUSH2 0x1ECA JUMP JUMPDEST PUSH1 0x40 MLOAD DUP1 SWAP2 SUB SWAP1 REVERT JUMPDEST PUSH2 0x3A1 PUSH8 0x6812D3AA5912318E PUSH1 0xC0 SHL PUSH2 0x16AB JUMP JUMPDEST PUSH2 0x3B5 PUSH8 0x205ED9868928DB0 PUSH1 0xC0 SHL PUSH2 0x16AB JUMP JUMPDEST PUSH2 0x3C9 PUSH8 0x6CB56CE6EFF3875 PUSH1 0xC0 SHL PUSH2 0x16AB JUMP JUMPDEST PUSH2 0x418 CALLER ADDRESS DUP5 PUSH1 0x1 PUSH1 0x0 SWAP1 SLOAD SWAP1 PUSH2 0x100 EXP SWAP1 DIV PUSH20 0xFFFFFFFFFFFFFFFFFFFFFFFFFFFFFFFFFFFFFFFF AND PUSH20 0xFFFFFFFFFFFFFFFFFFFFFFFFFFFFFFFFFFFFFFFF AND PUSH2 0x16FD SWAP1 SWAP4 SWAP3 SWAP2 SWAP1 PUSH4 0xFFFFFFFF AND JUMP JUMPDEST PUSH2 0x42C PUSH8 0x348FCCCDF5E31BEF PUSH1 0xC0 SHL PUSH2 0x16AB JUMP JUMPDEST PUSH2 0x43B DUP3 PUSH1 0x3 SLOAD PUSH1 0x4 SLOAD PUSH2 0x603 JUMP JUMPDEST SWAP1 POP PUSH2 0x451 PUSH8 0x8A5F0C37B2A3FA8F PUSH1 0xC0 SHL PUSH2 0x16AB JUMP JUMPDEST DUP2 PUSH1 0x3 PUSH1 0x0 DUP3 DUP3 SLOAD PUSH2 0x463 SWAP2 SWAP1 PUSH2 0x1F19 JUMP JUMPDEST SWAP3 POP POP DUP2 SWAP1 SSTORE POP PUSH2 0x47E PUSH8 0xBF9CA274F8C160D7 PUSH1 0xC0 SHL PUSH2 0x16AB JUMP JUMPDEST DUP1 PUSH1 0x4 PUSH1 0x0 DUP3 DUP3 SLOAD PUSH2 0x490 SWAP2 SWAP1 PUSH2 0x1F4D JUMP JUMPDEST SWAP3 POP POP DUP2 SWAP1 SSTORE POP PUSH2 0x4AB PUSH8 0xCB98078C699B9FD9 PUSH1 0xC0 SHL PUSH2 0x16AB JUMP JUMPDEST PUSH2 0x4BF PUSH8 0x60C50211BF1342CD PUSH1 0xC0 SHL PUSH2 0x16AB JUMP JUMPDEST PUSH2 0x50C CALLER DUP3 PUSH1 0x2 PUSH1 0x0 SWAP1 SLOAD SWAP1 PUSH2 0x100 EXP SWAP1 DIV PUSH20 0xFFFFFFFFFFFFFFFFFFFFFFFFFFFFFFFFFFFFFFFF AND PUSH20 0xFFFFFFFFFFFFFFFFFFFFFFFFFFFFFFFFFFFFFFFF AND PUSH2 0x1786 SWAP1 SWAP3 SWAP2 SWAP1 PUSH4 0xFFFFFFFF AND JUMP JUMPDEST PUSH2 0x520 PUSH8 0x63C7BE7E21D9FF76 PUSH1 0xC0 SHL PUSH2 0x16AB JUMP JUMPDEST PUSH2 0x534 PUSH8 0xA3F6E91905FB2964 PUSH1 0xC0 SHL PUSH2 0x16AB JUMP JUMPDEST PUSH1 0x2 PUSH1 0x0 SWAP1 SLOAD SWAP1 PUSH2 0x100 EXP SWAP1 DIV PUSH20 0xFFFFFFFFFFFFFFFFFFFFFFFFFFFFFFFFFFFFFFFF AND PUSH20 0xFFFFFFFFFFFFFFFFFFFFFFFFFFFFFFFFFFFFFFFF AND PUSH1 0x1 PUSH1 0x0 SWAP1 SLOAD SWAP1 PUSH2 0x100 EXP SWAP1 DIV PUSH20 0xFFFFFFFFFFFFFFFFFFFFFFFFFFFFFFFFFFFFFFFF AND PUSH20 0xFFFFFFFFFFFFFFFFFFFFFFFFFFFFFFFFFFFFFFFF AND CALLER PUSH20 0xFFFFFFFFFFFFFFFFFFFFFFFFFFFFFFFFFFFFFFFF AND PUSH32 0xCD3829A3813DC3CDD188FD3D01DCF3268C16BE2FDD2DD21D0665418816E46062 DUP6 DUP6 PUSH1 0x40 MLOAD PUSH2 0x5EE SWAP3 SWAP2 SWAP1 PUSH2 0x1D4F JUMP JUMPDEST PUSH1 0x40 MLOAD DUP1 SWAP2 SUB SWAP1 LOG4 PUSH2 0x5FE PUSH2 0x180C JUMP JUMPDEST SWAP2 SWAP1 POP JUMP JUMPDEST PUSH1 0x0 PUSH2 0x619 PUSH8 0xAE2F862056BC329C PUSH1 0xC0 SHL PUSH2 0x16AB JUMP JUMPDEST PUSH2 0x62D PUSH8 0xA6C6A7B816D7C10C PUSH1 0xC0 SHL PUSH2 0x16AB JUMP JUMPDEST PUSH2 0x641 PUSH8 0x6FD6AD6B50A86EB7 PUSH1 0xC0 SHL PUSH2 0x16AB JUMP JUMPDEST PUSH2 0x655 PUSH8 0xFCF89F619565323A PUSH1 0xC0 SHL PUSH2 0x16AB JUMP JUMPDEST PUSH1 0x0 DUP5 GT PUSH2 0x698 JUMPI PUSH1 0x40 MLOAD PUSH32 0x8C379A000000000000000000000000000000000000000000000000000000000 DUP2 MSTORE PUSH1 0x4 ADD PUSH2 0x68F SWAP1 PUSH2 0x1FCD JUMP JUMPDEST PUSH1 0x40 MLOAD DUP1 SWAP2 SUB SWAP1 REVERT JUMPDEST PUSH2 0x6AC PUSH8 0x2D78754A40E5D4B1 PUSH1 0xC0 SHL PUSH2 0x16AB JUMP JUMPDEST PUSH2 0x6C0 PUSH8 0xF704B5F91DBC517A PUSH1 0xC0 SHL PUSH2 0x16AB JUMP JUMPDEST PUSH2 0x6D4 PUSH8 0x2E2B0302104F5D26 PUSH1 0xC0 SHL PUSH2 0x16AB JUMP JUMPDEST PUSH2 0x6E8 PUSH8 0x844B7C0562A0AD66 PUSH1 0xC0 SHL PUSH2 0x16AB JUMP JUMPDEST PUSH1 0x0 DUP4 GT DUP1 ISZERO PUSH2 0x6F8 JUMPI POP PUSH1 0x0 DUP3 GT JUMPDEST PUSH2 0x737 JUMPI PUSH1 0x40 MLOAD PUSH32 0x8C379A000000000000000000000000000000000000000000000000000000000 DUP2 MSTORE PUSH1 0x4 ADD PUSH2 0x72E SWAP1 PUSH2 0x2039 JUMP JUMPDEST PUSH1 0x40 MLOAD DUP1 SWAP2 SUB SWAP1 REVERT JUMPDEST PUSH2 0x74B PUSH8 0xF9233B8CCEEC98A2 PUSH1 0xC0 SHL PUSH2 0x16AB JUMP JUMPDEST PUSH2 0x75F PUSH8 0xA7190270043E5622 PUSH1 0xC0 SHL PUSH2 0x16AB JUMP JUMPDEST PUSH2 0x773 PUSH8 0x962AE589AEDE901C PUSH1 0xC0 SHL PUSH2 0x16AB JUMP JUMPDEST PUSH1 0x0 PUSH2 0x3E5 DUP6 PUSH2 0x783 SWAP2 SWAP1 PUSH2 0x2059 JUMP JUMPDEST SWAP1 POP PUSH2 0x799 PUSH8 0x95E11089126012CC PUSH1 0xC0 SHL PUSH2 0x16AB JUMP JUMPDEST PUSH2 0x7AD PUSH8 0x668A90E8A324823B PUSH1 0xC0 SHL PUSH2 0x16AB JUMP JUMPDEST PUSH1 0x0 DUP4 DUP3 PUSH2 0x7BB SWAP2 SWAP1 PUSH2 0x2059 JUMP JUMPDEST SWAP1 POP PUSH2 0x7D1 PUSH8 0xADB58CB032993F65 PUSH1 0xC0 SHL PUSH2 0x16AB JUMP JUMPDEST PUSH2 0x7E5 PUSH8 0x1BECED2B43AB1EE4 PUSH1 0xC0 SHL PUSH2 0x16AB JUMP JUMPDEST PUSH1 0x0 DUP3 PUSH2 0x3E8 DUP8 PUSH2 0x7F6 SWAP2 SWAP1 PUSH2 0x2059 JUMP JUMPDEST PUSH2 0x800 SWAP2 SWAP1 PUSH2 0x1F19 JUMP JUMPDEST SWAP1 POP PUSH2 0x816 PUSH8 0x85C106FB572B3621 PUSH1 0xC0 SHL PUSH2 0x16AB JUMP JUMPDEST DUP1 DUP3 PUSH2 0x822 SWAP2 SWAP1 PUSH2 0x20CA JUMP JUMPDEST SWAP4 POP POP POP POP SWAP4 SWAP3 POP POP POP JUMP JUMPDEST PUSH1 0x0 DUP1 PUSH2 0x845 PUSH8 0x452D496A849C444B PUSH1 0xC0 SHL PUSH2 0x16AB JUMP JUMPDEST PUSH2 0x859 PUSH8 0xA1260DEBCAA49802 PUSH1 0xC0 SHL PUSH2 0x16AB JUMP JUMPDEST PUSH2 0x86D PUSH8 0x8927C4EE8B411A69 PUSH1 0xC0 SHL PUSH2 0x16AB JUMP JUMPDEST PUSH1 0x3 SLOAD PUSH1 0x4 SLOAD SWAP2 POP SWAP2 POP SWAP1 SWAP2 JUMP JUMPDEST PUSH1 0x1 PUSH1 0x0 SWAP1 SLOAD SWAP1 PUSH2 0x100 EXP SWAP1 DIV PUSH20 0xFFFFFFFFFFFFFFFFFFFFFFFFFFFFFFFFFFFFFFFF AND DUP2 JUMP JUMPDEST PUSH1 0x5 SLOAD DUP2 JUMP JUMPDEST PUSH1 0x4 SLOAD DUP2 JUMP JUMPDEST PUSH1 0x2 PUSH1 0x0 SWAP1 SLOAD SWAP1 PUSH2 0x100 EXP SWAP1 DIV PUSH20 0xFFFFFFFFFFFFFFFFFFFFFFFFFFFFFFFFFFFFFFFF AND DUP2 JUMP JUMPDEST PUSH1 0x0 PUSH2 0x8E9 PUSH8 0xF72132C81F838C85 PUSH1 0xC0 SHL PUSH2 0x16AB JUMP JUMPDEST PUSH2 0x8FD PUSH8 0x5F57D30BFD4895D6 PUSH1 0xC0 SHL PUSH2 0x16AB JUMP JUMPDEST PUSH2 0x911 PUSH8 0x966F8E2110209E78 PUSH1 0xC0 SHL PUSH2 0x16AB JUMP JUMPDEST PUSH1 0x0 PUSH1 0x3 SLOAD SUB PUSH2 0x94C JUMPI PUSH2 0x92F PUSH8 0x49A685362020E171 PUSH1 0xC0 SHL PUSH2 0x16AB JUMP JUMPDEST PUSH2 0x943 PUSH8 0x74D000D77446428D PUSH1 0xC0 SHL PUSH2 0x16AB JUMP JUMPDEST PUSH1 0x0 SWAP1 POP PUSH2 0x99B JUMP JUMPDEST PUSH2 0x960 PUSH8 0xF3A4CCCC5CDEEB0E PUSH1 0xC0 SHL PUSH2 0x16AB JUMP JUMPDEST PUSH2 0x974 PUSH8 0xDD7D7B4FEE5E8A24 PUSH1 0xC0 SHL PUSH2 0x16AB JUMP JUMPDEST PUSH2 0x988 PUSH8 0x67B1553EA8305959 PUSH1 0xC0 SHL PUSH2 0x16AB JUMP JUMPDEST PUSH1 0x3 SLOAD PUSH1 0x4 SLOAD PUSH2 0x998 SWAP2 SWAP1 PUSH2 0x20CA JUMP JUMPDEST SWAP1 POP JUMPDEST SWAP1 JUMP JUMPDEST PUSH1 0x0 DUP1 PUSH2 0x9B5 PUSH8 0x4E04E766CCC49364 PUSH1 0xC0 SHL PUSH2 0x16AB JUMP JUMPDEST PUSH2 0x9BD PUSH2 0x16AE JUMP JUMPDEST PUSH2 0x9D1 PUSH8 0x25E94AE2C3EF9EA PUSH1 0xC0 SHL PUSH2 0x16AB JUMP JUMPDEST PUSH2 0x9E5 PUSH8 0xAAD70076C195F5E1 PUSH1 0xC0 SHL PUSH2 0x16AB JUMP JUMPDEST PUSH2 0x9F9 PUSH8 0xDA8771BD9241996E PUSH1 0xC0 SHL PUSH2 0x16AB JUMP JUMPDEST PUSH2 0xA0D PUSH8 0x6FFD78FEF64A1F69 PUSH1 0xC0 SHL PUSH2 0x16AB JUMP JUMPDEST PUSH2 0xA21 PUSH8 0x609A7A8E393C82FF PUSH1 0xC0 SHL PUSH2 0x16AB JUMP JUMPDEST PUSH1 0x0 DUP4 GT PUSH2 0xA64 JUMPI PUSH1 0x40 MLOAD PUSH32 0x8C379A000000000000000000000000000000000000000000000000000000000 DUP2 MSTORE PUSH1 0x4 ADD PUSH2 0xA5B SWAP1 PUSH2 0x2147 JUMP JUMPDEST PUSH1 0x40 MLOAD DUP1 SWAP2 SUB SWAP1 REVERT JUMPDEST PUSH2 0xA78 PUSH8 0x83AA11B5C109EA37 PUSH1 0xC0 SHL PUSH2 0x16AB JUMP JUMPDEST PUSH2 0xA8C PUSH8 0x253578A76622BA0D PUSH1 0xC0 SHL PUSH2 0x16AB JUMP JUMPDEST PUSH2 0xAA0 PUSH8 0xF8B7C1EC400072E5 PUSH1 0xC0 SHL PUSH2 0x16AB JUMP JUMPDEST PUSH2 0xAB4 PUSH8 0x86E4CB6B0031C3E1 PUSH1 0xC0 SHL PUSH2 0x16AB JUMP JUMPDEST DUP3 PUSH1 0x6 PUSH1 0x0 CALLER PUSH20 0xFFFFFFFFFFFFFFFFFFFFFFFFFFFFFFFFFFFFFFFF AND PUSH20 0xFFFFFFFFFFFFFFFFFFFFFFFFFFFFFFFFFFFFFFFF AND DUP2 MSTORE PUSH1 0x20 ADD SWAP1 DUP2 MSTORE PUSH1 0x20 ADD PUSH1 0x0 KECCAK256 SLOAD LT ISZERO PUSH2 0xB36 JUMPI PUSH1 0x40 MLOAD PUSH32 0x8C379A000000000000000000000000000000000000000000000000000000000 DUP2 MSTORE PUSH1 0x4 ADD PUSH2 0xB2D SWAP1 PUSH2 0x21B3 JUMP JUMPDEST PUSH1 0x40 MLOAD DUP1 SWAP2 SUB SWAP1 REVERT JUMPDEST PUSH2 0xB4A PUSH8 0x5471EF3207D988B8 PUSH1 0xC0 SHL PUSH2 0x16AB JUMP JUMPDEST PUSH2 0xB5E PUSH8 0xECDF46C5C7CB9E2B PUSH1 0xC0 SHL PUSH2 0x16AB JUMP JUMPDEST PUSH1 0x5 SLOAD PUSH1 0x3 SLOAD DUP5 PUSH2 0xB6F SWAP2 SWAP1 PUSH2 0x2059 JUMP JUMPDEST PUSH2 0xB79 SWAP2 SWAP1 PUSH2 0x20CA JUMP JUMPDEST SWAP2 POP PUSH2 0xB8F PUSH8 0x32E11753C0FEF0D9 PUSH1 0xC0 SHL PUSH2 0x16AB JUMP JUMPDEST PUSH1 0x5 SLOAD PUSH1 0x4 SLOAD DUP5 PUSH2 0xBA0 SWAP2 SWAP1 PUSH2 0x2059 JUMP JUMPDEST PUSH2 0xBAA SWAP2 SWAP1 PUSH2 0x20CA JUMP JUMPDEST SWAP1 POP PUSH2 0xBC0 PUSH8 0xFBE8BEF100719253 PUSH1 0xC0 SHL PUSH2 0x16AB JUMP JUMPDEST DUP3 PUSH1 0x6 PUSH1 0x0 CALLER PUSH20 0xFFFFFFFFFFFFFFFFFFFFFFFFFFFFFFFFFFFFFFFF AND PUSH20 0xFFFFFFFFFFFFFFFFFFFFFFFFFFFFFFFFFFFFFFFF AND DUP2 MSTORE PUSH1 0x20 ADD SWAP1 DUP2 MSTORE PUSH1 0x20 ADD PUSH1 0x0 KECCAK256 PUSH1 0x0 DUP3 DUP3 SLOAD PUSH2 0xC0F SWAP2 SWAP1 PUSH2 0x1F4D JUMP JUMPDEST SWAP3 POP POP DUP2 SWAP1 SSTORE POP PUSH2 0xC2A PUSH8 0x2897463866F52F92 PUSH1 0xC0 SHL PUSH2 0x16AB JUMP JUMPDEST DUP3 PUSH1 0x5 PUSH1 0x0 DUP3 DUP3 SLOAD PUSH2 0xC3C SWAP2 SWAP1 PUSH2 0x1F4D JUMP JUMPDEST SWAP3 POP POP DUP2 SWAP1 SSTORE POP PUSH2 0xC57 PUSH8 0xD1B876C7B9AD8F78 PUSH1 0xC0 SHL PUSH2 0x16AB JUMP JUMPDEST DUP2 PUSH1 0x3 PUSH1 0x0 DUP3 DUP3 SLOAD PUSH2 0xC69 SWAP2 SWAP1 PUSH2 0x1F4D JUMP JUMPDEST SWAP3 POP POP DUP2 SWAP1 SSTORE POP PUSH2 0xC84 PUSH8 0x8988FF66B27E1FFE PUSH1 0xC0 SHL PUSH2 0x16AB JUMP JUMPDEST DUP1 PUSH1 0x4 PUSH1 0x0 DUP3 DUP3 SLOAD PUSH2 0xC96 SWAP2 SWAP1 PUSH2 0x1F4D JUMP JUMPDEST SWAP3 POP POP DUP2 SWAP1 SSTORE POP PUSH2 0xCB1 PUSH8 0xAB7DD7D861324468 PUSH1 0xC0 SHL PUSH2 0x16AB JUMP JUMPDEST PUSH2 0xCC5 PUSH8 0xCD1B9915BDDA3063 PUSH1 0xC0 SHL PUSH2 0x16AB JUMP JUMPDEST PUSH2 0xD12 CALLER DUP4 PUSH1 0x1 PUSH1 0x0 SWAP1 SLOAD SWAP1 PUSH2 0x100 EXP SWAP1 DIV PUSH20 0xFFFFFFFFFFFFFFFFFFFFFFFFFFFFFFFFFFFFFFFF AND PUSH20 0xFFFFFFFFFFFFFFFFFFFFFFFFFFFFFFFFFFFFFFFF AND PUSH2 0x1786 SWAP1 SWAP3 SWAP2 SWAP1 PUSH4 0xFFFFFFFF AND JUMP JUMPDEST PUSH2 0xD26 PUSH8 0x7F95EB80CF758352 PUSH1 0xC0 SHL PUSH2 0x16AB JUMP JUMPDEST PUSH2 0xD3A PUSH8 0xFED106CA89CD01D3 PUSH1 0xC0 SHL PUSH2 0x16AB JUMP JUMPDEST PUSH2 0xD87 CALLER DUP3 PUSH1 0x2 PUSH1 0x0 SWAP1 SLOAD SWAP1 PUSH2 0x100 EXP SWAP1 DIV PUSH20 0xFFFFFFFFFFFFFFFFFFFFFFFFFFFFFFFFFFFFFFFF AND PUSH20 0xFFFFFFFFFFFFFFFFFFFFFFFFFFFFFFFFFFFFFFFF AND PUSH2 0x1786 SWAP1 SWAP3 SWAP2 SWAP1 PUSH4 0xFFFFFFFF AND JUMP JUMPDEST PUSH2 0xD9B PUSH8 0x1AEB314CFCF5F1E3 PUSH1 0xC0 SHL PUSH2 0x16AB JUMP JUMPDEST PUSH2 0xDAF PUSH8 0x883E8D9E704BD4B4 PUSH1 0xC0 SHL PUSH2 0x16AB JUMP JUMPDEST CALLER PUSH20 0xFFFFFFFFFFFFFFFFFFFFFFFFFFFFFFFFFFFFFFFF AND PUSH32 0x1DC8BB69DF2B8E91FBDCBFCF93D951B3F0000F085A95FE3F7946D6161439245D DUP4 DUP4 DUP7 PUSH1 0x40 MLOAD PUSH2 0xDF9 SWAP4 SWAP3 SWAP2 SWAP1 PUSH2 0x21D3 JUMP JUMPDEST PUSH1 0x40 MLOAD DUP1 SWAP2 SUB SWAP1 LOG2 PUSH2 0xE09 PUSH2 0x180C JUMP JUMPDEST SWAP2 POP SWAP2 JUMP JUMPDEST PUSH1 0x0 PUSH2 0xE24 PUSH8 0x9A72685B8188C684 PUSH1 0xC0 SHL PUSH2 0x16AB JUMP JUMPDEST PUSH2 0xE2C PUSH2 0x16AE JUMP JUMPDEST PUSH2 0xE40 PUSH8 0x2264E43063B5528E PUSH1 0xC0 SHL PUSH2 0x16AB JUMP JUMPDEST PUSH2 0xE54 PUSH8 0xEFE348EB2EEE6DE4 PUSH1 0xC0 SHL PUSH2 0x16AB JUMP JUMPDEST PUSH2 0xE68 PUSH8 0x16322F469713450E PUSH1 0xC0 SHL PUSH2 0x16AB JUMP JUMPDEST PUSH2 0xE7C PUSH8 0xE2EA5A187084F883 PUSH1 0xC0 SHL PUSH2 0x16AB JUMP JUMPDEST PUSH2 0xE90 PUSH8 0x1065AEFFFECF03F1 PUSH1 0xC0 SHL PUSH2 0x16AB JUMP JUMPDEST PUSH1 0x0 DUP4 GT DUP1 ISZERO PUSH2 0xEA0 JUMPI POP PUSH1 0x0 DUP3 GT JUMPDEST PUSH2 0xEDF JUMPI PUSH1 0x40 MLOAD PUSH32 0x8C379A000000000000000000000000000000000000000000000000000000000 DUP2 MSTORE PUSH1 0x4 ADD PUSH2 0xED6 SWAP1 PUSH2 0x2147 JUMP JUMPDEST PUSH1 0x40 MLOAD DUP1 SWAP2 SUB SWAP1 REVERT JUMPDEST PUSH2 0xEF3 PUSH8 0x9C5E3F141A54140 PUSH1 0xC0 SHL PUSH2 0x16AB JUMP JUMPDEST PUSH2 0xF07 PUSH8 0xC57C62822CE8735E PUSH1 0xC0 SHL PUSH2 0x16AB JUMP JUMPDEST PUSH2 0xF1B PUSH8 0x68E0DCAF2209BD32 PUSH1 0xC0 SHL PUSH2 0x16AB JUMP JUMPDEST PUSH2 0xF6A CALLER ADDRESS DUP6 PUSH1 0x1 PUSH1 0x0 SWAP1 SLOAD SWAP1 PUSH2 0x100 EXP SWAP1 DIV PUSH20 0xFFFFFFFFFFFFFFFFFFFFFFFFFFFFFFFFFFFFFFFF AND PUSH20 0xFFFFFFFFFFFFFFFFFFFFFFFFFFFFFFFFFFFFFFFF AND PUSH2 0x16FD SWAP1 SWAP4 SWAP3 SWAP2 SWAP1 PUSH4 0xFFFFFFFF AND JUMP JUMPDEST PUSH2 0xF7E PUSH8 0x5211DE116B8ACE30 PUSH1 0xC0 SHL PUSH2 0x16AB JUMP JUMPDEST PUSH2 0xF92 PUSH8 0x36E434EC7E1080AC PUSH1 0xC0 SHL PUSH2 0x16AB JUMP JUMPDEST PUSH2 0xFE1 CALLER ADDRESS DUP5 PUSH1 0x2 PUSH1 0x0 SWAP1 SLOAD SWAP1 PUSH2 0x100 EXP SWAP1 DIV PUSH20 0xFFFFFFFFFFFFFFFFFFFFFFFFFFFFFFFFFFFFFFFF AND PUSH20 0xFFFFFFFFFFFFFFFFFFFFFFFFFFFFFFFFFFFFFFFF AND PUSH2 0x16FD SWAP1 SWAP4 SWAP3 SWAP2 SWAP1 PUSH4 0xFFFFFFFF AND JUMP JUMPDEST PUSH2 0xFF5 PUSH8 0x383EA8B3463C53D7 PUSH1 0xC0 SHL PUSH2 0x16AB JUMP JUMPDEST PUSH2 0x1009 PUSH8 0x23DE50E2367EDC8B PUSH1 0xC0 SHL PUSH2 0x16AB JUMP JUMPDEST PUSH1 0x0 PUSH1 0x5 SLOAD SUB PUSH2 0x1056 JUMPI PUSH2 0x1027 PUSH8 0x9D49E572BBF8F740 PUSH1 0xC0 SHL PUSH2 0x16AB JUMP JUMPDEST PUSH2 0x103B PUSH8 0xC08488370C4C61D4 PUSH1 0xC0 SHL PUSH2 0x16AB JUMP JUMPDEST PUSH2 0x104F DUP3 DUP5 PUSH2 0x104A SWAP2 SWAP1 PUSH2 0x2059 JUMP JUMPDEST PUSH2 0x1816 JUMP JUMPDEST SWAP1 POP PUSH2 0x1148 JUMP JUMPDEST PUSH2 0x106A PUSH8 0x4EF366D251689B05 PUSH1 0xC0 SHL PUSH2 0x16AB JUMP JUMPDEST PUSH2 0x107E PUSH8 0xE4725307C1226278 PUSH1 0xC0 SHL PUSH2 0x16AB JUMP JUMPDEST PUSH2 0x1092 PUSH8 0x4E198DB302260C75 PUSH1 0xC0 SHL PUSH2 0x16AB JUMP JUMPDEST PUSH2 0x10A6 PUSH8 0x330E18E8489C545E PUSH1 0xC0 SHL PUSH2 0x16AB JUMP JUMPDEST DUP3 PUSH1 0x4 SLOAD PUSH2 0x10B4 SWAP2 SWAP1 PUSH2 0x2059 JUMP JUMPDEST DUP3 PUSH1 0x3 SLOAD PUSH2 0x10C2 SWAP2 SWAP1 PUSH2 0x2059 JUMP JUMPDEST EQ PUSH2 0x1102 JUMPI PUSH1 0x40 MLOAD PUSH32 0x8C379A000000000000000000000000000000000000000000000000000000000 DUP2 MSTORE PUSH1 0x4 ADD PUSH2 0x10F9 SWAP1 PUSH2 0x2256 JUMP JUMPDEST PUSH1 0x40 MLOAD DUP1 SWAP2 SUB SWAP1 REVERT JUMPDEST PUSH2 0x1116 PUSH8 0x62B9D595EB09F232 PUSH1 0xC0 SHL PUSH2 0x16AB JUMP JUMPDEST PUSH2 0x112A PUSH8 0x4A346FAB76C7AC1F PUSH1 0xC0 SHL PUSH2 0x16AB JUMP JUMPDEST PUSH1 0x3 SLOAD PUSH1 0x5 SLOAD DUP5 PUSH2 0x113B SWAP2 SWAP1 PUSH2 0x2059 JUMP JUMPDEST PUSH2 0x1145 SWAP2 SWAP1 PUSH2 0x20CA JUMP JUMPDEST SWAP1 POP JUMPDEST PUSH2 0x115C PUSH8 0x520E24A6206CE8BA PUSH1 0xC0 SHL PUSH2 0x16AB JUMP JUMPDEST PUSH2 0x1170 PUSH8 0x267EF47893CB1074 PUSH1 0xC0 SHL PUSH2 0x16AB JUMP JUMPDEST PUSH2 0x1184 PUSH8 0xCE7E4CBB247F5D35 PUSH1 0xC0 SHL PUSH2 0x16AB JUMP JUMPDEST PUSH1 0x0 DUP2 GT PUSH2 0x11C7 JUMPI PUSH1 0x40 MLOAD PUSH32 0x8C379A000000000000000000000000000000000000000000000000000000000 DUP2 MSTORE PUSH1 0x4 ADD PUSH2 0x11BE SWAP1 PUSH2 0x22C2 JUMP JUMPDEST PUSH1 0x40 MLOAD DUP1 SWAP2 SUB SWAP1 REVERT JUMPDEST PUSH2 0x11DB PUSH8 0x47FD82EEA3E8E2BC PUSH1 0xC0 SHL PUSH2 0x16AB JUMP JUMPDEST PUSH2 0x11EF PUSH8 0x7725DF995BB2140D PUSH1 0xC0 SHL PUSH2 0x16AB JUMP JUMPDEST DUP1 PUSH1 0x6 PUSH1 0x0 CALLER PUSH20 0xFFFFFFFFFFFFFFFFFFFFFFFFFFFFFFFFFFFFFFFF AND PUSH20 0xFFFFFFFFFFFFFFFFFFFFFFFFFFFFFFFFFFFFFFFF AND DUP2 MSTORE PUSH1 0x20 ADD SWAP1 DUP2 MSTORE PUSH1 0x20 ADD PUSH1 0x0 KECCAK256 PUSH1 0x0 DUP3 DUP3 SLOAD PUSH2 0x123E SWAP2 SWAP1 PUSH2 0x1F19 JUMP JUMPDEST SWAP3 POP POP DUP2 SWAP1 SSTORE POP PUSH2 0x1259 PUSH8 0xB60DF91049F9D984 PUSH1 0xC0 SHL PUSH2 0x16AB JUMP JUMPDEST DUP1 PUSH1 0x5 PUSH1 0x0 DUP3 DUP3 SLOAD PUSH2 0x126B SWAP2 SWAP1 PUSH2 0x1F19 JUMP JUMPDEST SWAP3 POP POP DUP2 SWAP1 SSTORE POP PUSH2 0x1286 PUSH8 0x8A2FEA300585DDAF PUSH1 0xC0 SHL PUSH2 0x16AB JUMP JUMPDEST DUP3 PUSH1 0x3 PUSH1 0x0 DUP3 DUP3 SLOAD PUSH2 0x1298 SWAP2 SWAP1 PUSH2 0x1F19 JUMP JUMPDEST SWAP3 POP POP DUP2 SWAP1 SSTORE POP PUSH2 0x12B3 PUSH8 0x797680EAB0D2935A PUSH1 0xC0 SHL PUSH2 0x16AB JUMP JUMPDEST DUP2 PUSH1 0x4 PUSH1 0x0 DUP3 DUP3 SLOAD PUSH2 0x12C5 SWAP2 SWAP1 PUSH2 0x1F19 JUMP JUMPDEST SWAP3 POP POP DUP2 SWAP1 SSTORE POP PUSH2 0x12E0 PUSH8 0x85FD3F9C7AFCF982 PUSH1 0xC0 SHL PUSH2 0x16AB JUMP JUMPDEST PUSH2 0x12F4 PUSH8 0x504E9A73D6F16122 PUSH1 0xC0 SHL PUSH2 0x16AB JUMP JUMPDEST CALLER PUSH20 0xFFFFFFFFFFFFFFFFFFFFFFFFFFFFFFFFFFFFFFFF AND PUSH32 0x64B83944E79C3CE8D4C297411DE637C3E102D064677AAC0C163976EBDCD6F50E DUP5 DUP5 DUP5 PUSH1 0x40 MLOAD PUSH2 0x133E SWAP4 SWAP3 SWAP2 SWAP1 PUSH2 0x21D3 JUMP JUMPDEST PUSH1 0x40 MLOAD DUP1 SWAP2 SUB SWAP1 LOG2 PUSH2 0x134E PUSH2 0x180C JUMP JUMPDEST SWAP3 SWAP2 POP POP JUMP JUMPDEST PUSH1 0x6 PUSH1 0x20 MSTORE DUP1 PUSH1 0x0 MSTORE PUSH1 0x40 PUSH1 0x0 KECCAK256 PUSH1 0x0 SWAP2 POP SWAP1 POP SLOAD DUP2 JUMP JUMPDEST PUSH1 0x3 SLOAD DUP2 JUMP JUMPDEST PUSH1 0x0 PUSH2 0x1388 PUSH8 0xA4538951ACCF92D4 PUSH1 0xC0 SHL PUSH2 0x16AB JUMP JUMPDEST PUSH2 0x1390 PUSH2 0x16AE JUMP JUMPDEST PUSH2 0x13A4 PUSH8 0x6E7AD74C06968A73 PUSH1 0xC0 SHL PUSH2 0x16AB JUMP JUMPDEST PUSH2 0x13B8 PUSH8 0xB517114DA1462B25 PUSH1 0xC0 SHL PUSH2 0x16AB JUMP JUMPDEST PUSH2 0x13CC PUSH8 0x1AFBB9B317EE1FE6 PUSH1 0xC0 SHL PUSH2 0x16AB JUMP JUMPDEST PUSH2 0x13E0 PUSH8 0x5FD550124C3083FE PUSH1 0xC0 SHL PUSH2 0x16AB JUMP JUMPDEST PUSH2 0x13F3 PUSH7 0xE86E4FA9E06BE6 PUSH1 0xC0 SHL PUSH2 0x16AB JUMP JUMPDEST PUSH1 0x0 DUP3 GT PUSH2 0x1436 JUMPI PUSH1 0x40 MLOAD PUSH32 0x8C379A000000000000000000000000000000000000000000000000000000000 DUP2 MSTORE PUSH1 0x4 ADD PUSH2 0x142D SWAP1 PUSH2 0x1ECA JUMP JUMPDEST PUSH1 0x40 MLOAD DUP1 SWAP2 SUB SWAP1 REVERT JUMPDEST PUSH2 0x144A PUSH8 0x4A452FEBC99FAB6E PUSH1 0xC0 SHL PUSH2 0x16AB JUMP JUMPDEST PUSH2 0x145E PUSH8 0x62581E5F9F445ECA PUSH1 0xC0 SHL PUSH2 0x16AB JUMP JUMPDEST PUSH2 0x1471 PUSH7 0xF17DC7DE4D653B PUSH1 0xC0 SHL PUSH2 0x16AB JUMP JUMPDEST PUSH2 0x14C0 CALLER ADDRESS DUP5 PUSH1 0x2 PUSH1 0x0 SWAP1 SLOAD SWAP1 PUSH2 0x100 EXP SWAP1 DIV PUSH20 0xFFFFFFFFFFFFFFFFFFFFFFFFFFFFFFFFFFFFFFFF AND PUSH20 0xFFFFFFFFFFFFFFFFFFFFFFFFFFFFFFFFFFFFFFFF AND PUSH2 0x16FD SWAP1 SWAP4 SWAP3 SWAP2 SWAP1 PUSH4 0xFFFFFFFF AND JUMP JUMPDEST PUSH2 0x14D4 PUSH8 0x608A9BA0D05A36A3 PUSH1 0xC0 SHL PUSH2 0x16AB JUMP JUMPDEST PUSH2 0x14E3 DUP3 PUSH1 0x4 SLOAD PUSH1 0x3 SLOAD PUSH2 0x603 JUMP JUMPDEST SWAP1 POP PUSH2 0x14F9 PUSH8 0xCF504E9267127E19 PUSH1 0xC0 SHL PUSH2 0x16AB JUMP JUMPDEST DUP2 PUSH1 0x4 PUSH1 0x0 DUP3 DUP3 SLOAD PUSH2 0x150B SWAP2 SWAP1 PUSH2 0x1F19 JUMP JUMPDEST SWAP3 POP POP DUP2 SWAP1 SSTORE POP PUSH2 0x1526 PUSH8 0xFD00CDE3CEFD1F94 PUSH1 0xC0 SHL PUSH2 0x16AB JUMP JUMPDEST DUP1 PUSH1 0x3 PUSH1 0x0 DUP3 DUP3 SLOAD PUSH2 0x1538 SWAP2 SWAP1 PUSH2 0x1F4D JUMP JUMPDEST SWAP3 POP POP DUP2 SWAP1 SSTORE POP PUSH2 0x1553 PUSH8 0x11A9983ED81FB398 PUSH1 0xC0 SHL PUSH2 0x16AB JUMP JUMPDEST PUSH2 0x1567 PUSH8 0xE012944B18CA8D06 PUSH1 0xC0 SHL PUSH2 0x16AB JUMP JUMPDEST PUSH2 0x15B4 CALLER DUP3 PUSH1 0x1 PUSH1 0x0 SWAP1 SLOAD SWAP1 PUSH2 0x100 EXP SWAP1 DIV PUSH20 0xFFFFFFFFFFFFFFFFFFFFFFFFFFFFFFFFFFFFFFFF AND PUSH20 0xFFFFFFFFFFFFFFFFFFFFFFFFFFFFFFFFFFFFFFFF AND PUSH2 0x1786 SWAP1 SWAP3 SWAP2 SWAP1 PUSH4 0xFFFFFFFF AND JUMP JUMPDEST PUSH2 0x15C8 PUSH8 0x47020D1180844A58 PUSH1 0xC0 SHL PUSH2 0x16AB JUMP JUMPDEST PUSH2 0x15DC PUSH8 0xA289F6D1E1EF9B18 PUSH1 0xC0 SHL PUSH2 0x16AB JUMP JUMPDEST PUSH1 0x1 PUSH1 0x0 SWAP1 SLOAD SWAP1 PUSH2 0x100 EXP SWAP1 DIV PUSH20 0xFFFFFFFFFFFFFFFFFFFFFFFFFFFFFFFFFFFFFFFF AND PUSH20 0xFFFFFFFFFFFFFFFFFFFFFFFFFFFFFFFFFFFFFFFF AND PUSH1 0x2 PUSH1 0x0 SWAP1 SLOAD SWAP1 PUSH2 0x100 EXP SWAP1 DIV PUSH20 0xFFFFFFFFFFFFFFFFFFFFFFFFFFFFFFFFFFFFFFFF AND PUSH20 0xFFFFFFFFFFFFFFFFFFFFFFFFFFFFFFFFFFFFFFFF AND CALLER PUSH20 0xFFFFFFFFFFFFFFFFFFFFFFFFFFFFFFFFFFFFFFFF AND PUSH32 0xCD3829A3813DC3CDD188FD3D01DCF3268C16BE2FDD2DD21D0665418816E46062 DUP6 DUP6 PUSH1 0x40 MLOAD PUSH2 0x1696 SWAP3 SWAP2 SWAP1 PUSH2 0x1D4F JUMP JUMPDEST PUSH1 0x40 MLOAD DUP1 SWAP2 SUB SWAP1 LOG4 PUSH2 0x16A6 PUSH2 0x180C JUMP JUMPDEST SWAP2 SWAP1 POP JUMP JUMPDEST POP JUMP JUMPDEST PUSH1 0x2 PUSH1 0x0 SLOAD SUB PUSH2 0x16F3 JUMPI PUSH1 0x40 MLOAD PUSH32 0x8C379A000000000000000000000000000000000000000000000000000000000 DUP2 MSTORE PUSH1 0x4 ADD PUSH2 0x16EA SWAP1 PUSH2 0x232E JUMP JUMPDEST PUSH1 0x40 MLOAD DUP1 SWAP2 SUB SWAP1 REVERT JUMPDEST PUSH1 0x2 PUSH1 0x0 DUP2 SWAP1 SSTORE POP JUMP JUMPDEST PUSH2 0x1780 DUP5 PUSH4 0x23B872DD PUSH1 0xE0 SHL DUP6 DUP6 DUP6 PUSH1 0x40 MLOAD PUSH1 0x24 ADD PUSH2 0x171E SWAP4 SWAP3 SWAP2 SWAP1 PUSH2 0x234E JUMP JUMPDEST PUSH1 0x40 MLOAD PUSH1 0x20 DUP2 DUP4 SUB SUB DUP2 MSTORE SWAP1 PUSH1 0x40 MSTORE SWAP1 PUSH28 0xFFFFFFFFFFFFFFFFFFFFFFFFFFFFFFFFFFFFFFFFFFFFFFFFFFFFFFFF NOT AND PUSH1 0x20 DUP3 ADD DUP1 MLOAD PUSH28 0xFFFFFFFFFFFFFFFFFFFFFFFFFFFFFFFFFFFFFFFFFFFFFFFFFFFFFFFF DUP4 DUP2 DUP4 AND OR DUP4 MSTORE POP POP POP POP PUSH2 0x19D5 JUMP JUMPDEST POP POP POP POP JUMP JUMPDEST PUSH2 0x1807 DUP4 PUSH4 0xA9059CBB PUSH1 0xE0 SHL DUP5 DUP5 PUSH1 0x40 MLOAD PUSH1 0x24 ADD PUSH2 0x17A5 SWAP3 SWAP2 SWAP1 PUSH2 0x2385 JUMP JUMPDEST PUSH1 0x40 MLOAD PUSH1 0x20 DUP2 DUP4 SUB SUB DUP2 MSTORE SWAP1 PUSH1 0x40 MSTORE SWAP1 PUSH28 0xFFFFFFFFFFFFFFFFFFFFFFFFFFFFFFFFFFFFFFFFFFFFFFFFFFFFFFFF NOT AND PUSH1 0x20 DUP3 ADD DUP1 MLOAD PUSH28 0xFFFFFFFFFFFFFFFFFFFFFFFFFFFFFFFFFFFFFFFFFFFFFFFFFFFFFFFF DUP4 DUP2 DUP4 AND OR DUP4 MSTORE POP POP POP POP PUSH2 0x19D5 JUMP JUMPDEST POP POP POP JUMP JUMPDEST PUSH1 0x1 PUSH1 0x0 DUP2 SWAP1 SSTORE POP JUMP JUMPDEST PUSH1 0x0 PUSH2 0x182C PUSH8 0xFD751DE5660B754F PUSH1 0xC0 SHL PUSH2 0x16AB JUMP JUMPDEST PUSH2 0x1840 PUSH8 0xBCE905D3D9868215 PUSH1 0xC0 SHL PUSH2 0x16AB JUMP JUMPDEST PUSH2 0x1854 PUSH8 0xB76741278AE68E70 PUSH1 0xC0 SHL PUSH2 0x16AB JUMP JUMPDEST PUSH1 0x3 DUP3 GT ISZERO PUSH2 0x1959 JUMPI PUSH2 0x1871 PUSH8 0x1F93820476D3F89F PUSH1 0xC0 SHL PUSH2 0x16AB JUMP JUMPDEST PUSH2 0x1885 PUSH8 0x4793231EDAD212CF PUSH1 0xC0 SHL PUSH2 0x16AB JUMP JUMPDEST DUP2 SWAP1 POP PUSH2 0x189C PUSH8 0xDF48D36DC46A60CB PUSH1 0xC0 SHL PUSH2 0x16AB JUMP JUMPDEST PUSH2 0x18B0 PUSH8 0xB5751D2114588579 PUSH1 0xC0 SHL PUSH2 0x16AB JUMP JUMPDEST PUSH1 0x0 PUSH1 0x1 PUSH1 0x2 DUP5 PUSH2 0x18C1 SWAP2 SWAP1 PUSH2 0x20CA JUMP JUMPDEST PUSH2 0x18CB SWAP2 SWAP1 PUSH2 0x1F19 JUMP JUMPDEST SWAP1 POP PUSH2 0x18E1 PUSH8 0xF376A1034A52FB7E PUSH1 0xC0 SHL PUSH2 0x16AB JUMP JUMPDEST PUSH2 0x18F5 PUSH8 0x8E500D896E069614 PUSH1 0xC0 SHL PUSH2 0x16AB JUMP JUMPDEST JUMPDEST DUP2 DUP2 LT ISZERO PUSH2 0x1953 JUMPI PUSH2 0x1912 PUSH8 0xC6E2BE7ADE49C94B PUSH1 0xC0 SHL PUSH2 0x16AB JUMP JUMPDEST DUP1 SWAP2 POP PUSH2 0x1929 PUSH8 0x7945B785D72A1CFA PUSH1 0xC0 SHL PUSH2 0x16AB JUMP JUMPDEST PUSH1 0x2 DUP2 DUP3 DUP6 PUSH2 0x1938 SWAP2 SWAP1 PUSH2 0x20CA JUMP JUMPDEST PUSH2 0x1942 SWAP2 SWAP1 PUSH2 0x1F19 JUMP JUMPDEST PUSH2 0x194C SWAP2 SWAP1 PUSH2 0x20CA JUMP JUMPDEST SWAP1 POP PUSH2 0x18F6 JUMP JUMPDEST POP PUSH2 0x19D0 JUMP JUMPDEST PUSH2 0x196D PUSH8 0xFB80F74426CD0FE4 PUSH1 0xC0 SHL PUSH2 0x16AB JUMP JUMPDEST PUSH2 0x1981 PUSH8 0xBD0B12833157D971 PUSH1 0xC0 SHL PUSH2 0x16AB JUMP JUMPDEST PUSH1 0x0 DUP3 EQ PUSH2 0x19BA JUMPI PUSH2 0x199D PUSH8 0x5EBC1E36145D74B6 PUSH1 0xC0 SHL PUSH2 0x16AB JUMP JUMPDEST PUSH2 0x19B1 PUSH8 0x29B934B83460BB9F PUSH1 0xC0 SHL PUSH2 0x16AB JUMP JUMPDEST PUSH1 0x1 SWAP1 POP PUSH2 0x19CF JUMP JUMPDEST PUSH2 0x19CE PUSH8 0x1BD436B9DABEB2E0 PUSH1 0xC0 SHL PUSH2 0x16AB JUMP JUMPDEST JUMPDEST JUMPDEST SWAP2 SWAP1 POP JUMP JUMPDEST PUSH1 0x0 PUSH2 0x1A37 DUP3 PUSH1 0x40 MLOAD DUP1 PUSH1 0x40 ADD PUSH1 0x40 MSTORE DUP1 PUSH1 0x20 DUP2 MSTORE PUSH1 0x20 ADD PUSH32 0x5361666545524332303A206C6F772D6C6576656C2063616C6C206661696C6564 DUP2 MSTORE POP DUP6 PUSH20 0xFFFFFFFFFFFFFFFFFFFFFFFFFFFFFFFFFFFFFFFF AND PUSH2 0x1A9D SWAP1 SWAP3 SWAP2 SWAP1 PUSH4 0xFFFFFFFF AND JUMP JUMPDEST SWAP1 POP PUSH1 0x0 DUP2 MLOAD EQ DUP1 PUSH2 0x1A59 JUMPI POP DUP1 DUP1 PUSH1 0x20 ADD SWAP1 MLOAD DUP2 ADD SWAP1 PUSH2 0x1A58 SWAP2 SWAP1 PUSH2 0x23E6 JUMP JUMPDEST JUMPDEST PUSH2 0x1A98 JUMPI PUSH1 0x40 MLOAD PUSH32 0x8C379A000000000000000000000000000000000000000000000000000000000 DUP2 MSTORE PUSH1 0x4 ADD PUSH2 0x1A8F SWAP1 PUSH2 0x2485 JUMP JUMPDEST PUSH1 0x40 MLOAD DUP1 SWAP2 SUB SWAP1 REVERT JUMPDEST POP POP POP JUMP JUMPDEST PUSH1 0x60 PUSH2 0x1AAC DUP5 DUP5 PUSH1 0x0 DUP6 PUSH2 0x1AB5 JUMP JUMPDEST SWAP1 POP SWAP4 SWAP3 POP POP POP JUMP JUMPDEST PUSH1 0x60 DUP3 SELFBALANCE LT ISZERO PUSH2 0x1AFA JUMPI PUSH1 0x40 MLOAD PUSH32 0x8C379A000000000000000000000000000000000000000000000000000000000 DUP2 MSTORE PUSH1 0x4 ADD PUSH2 0x1AF1 SWAP1 PUSH2 0x2517 JUMP JUMPDEST PUSH1 0x40 MLOAD DUP1 SWAP2 SUB SWAP1 REVERT JUMPDEST PUSH1 0x0 DUP1 DUP7 PUSH20 0xFFFFFFFFFFFFFFFFFFFFFFFFFFFFFFFFFFFFFFFF AND DUP6 DUP8 PUSH1 0x40 MLOAD PUSH2 0x1B23 SWAP2 SWAP1 PUSH2 0x25A8 JUMP JUMPDEST PUSH1 0x0 PUSH1 0x40 MLOAD DUP1 DUP4 SUB DUP2 DUP6 DUP8 GAS CALL SWAP3 POP POP POP RETURNDATASIZE DUP1 PUSH1 0x0 DUP2 EQ PUSH2 0x1B60 JUMPI PUSH1 0x40 MLOAD SWAP2 POP PUSH1 0x1F NOT PUSH1 0x3F RETURNDATASIZE ADD AND DUP3 ADD PUSH1 0x40 MSTORE RETURNDATASIZE DUP3 MSTORE RETURNDATASIZE PUSH1 0x0 PUSH1 0x20 DUP5 ADD RETURNDATACOPY PUSH2 0x1B65 JUMP JUMPDEST PUSH1 0x60 SWAP2 POP JUMPDEST POP SWAP2 POP SWAP2 POP PUSH2 0x1B76 DUP8 DUP4 DUP4 DUP8 PUSH2 0x1B82 JUMP JUMPDEST SWAP3 POP POP POP SWAP5 SWAP4 POP POP POP POP JUMP JUMPDEST PUSH1 0x60 DUP4 ISZERO PUSH2 0x1BE4 JUMPI PUSH1 0x0 DUP4 MLOAD SUB PUSH2 0x1BDC JUMPI PUSH2 0x1B9C DUP6 PUSH2 0x1BF7 JUMP JUMPDEST PUSH2 0x1BDB JUMPI PUSH1 0x40 MLOAD PUSH32 0x8C379A000000000000000000000000000000000000000000000000000000000 DUP2 MSTORE PUSH1 0x4 ADD PUSH2 0x1BD2 SWAP1 PUSH2 0x260B JUMP JUMPDEST PUSH1 0x40 MLOAD DUP1 SWAP2 SUB SWAP1 REVERT JUMPDEST JUMPDEST DUP3 SWAP1 POP PUSH2 0x1BEF JUMP JUMPDEST PUSH2 0x1BEE DUP4 DUP4 PUSH2 0x1C1A JUMP JUMPDEST JUMPDEST SWAP5 SWAP4 POP POP POP POP JUMP JUMPDEST PUSH1 0x0 DUP1 DUP3 PUSH20 0xFFFFFFFFFFFFFFFFFFFFFFFFFFFFFFFFFFFFFFFF AND EXTCODESIZE GT SWAP1 POP SWAP2 SWAP1 POP JUMP JUMPDEST PUSH1 0x0 DUP3 MLOAD GT ISZERO PUSH2 0x1C2D JUMPI DUP2 MLOAD DUP1 DUP4 PUSH1 0x20 ADD REVERT JUMPDEST DUP1 PUSH1 0x40 MLOAD PUSH32 0x8C379A000000000000000000000000000000000000000000000000000000000 DUP2 MSTORE PUSH1 0x4 ADD PUSH2 0x1C61 SWAP2 SWAP1 PUSH2 0x2680 JUMP JUMPDEST PUSH1 0x40 MLOAD DUP1 SWAP2 SUB SWAP1 REVERT JUMPDEST PUSH1 0x0 DUP1 REVERT JUMPDEST PUSH1 0x0 DUP2 SWAP1 POP SWAP2 SWAP1 POP JUMP JUMPDEST PUSH2 0x1C82 DUP2 PUSH2 0x1C6F JUMP JUMPDEST DUP2 EQ PUSH2 0x1C8D JUMPI PUSH1 0x0 DUP1 REVERT JUMPDEST POP JUMP JUMPDEST PUSH1 0x0 DUP2 CALLDATALOAD SWAP1 POP PUSH2 0x1C9F DUP2 PUSH2 0x1C79 JUMP JUMPDEST SWAP3 SWAP2 POP POP JUMP JUMPDEST PUSH1 0x0 PUSH1 0x20 DUP3 DUP5 SUB SLT ISZERO PUSH2 0x1CBB JUMPI PUSH2 0x1CBA PUSH2 0x1C6A JUMP JUMPDEST JUMPDEST PUSH1 0x0 PUSH2 0x1CC9 DUP5 DUP3 DUP6 ADD PUSH2 0x1C90 JUMP JUMPDEST SWAP2 POP POP SWAP3 SWAP2 POP POP JUMP JUMPDEST PUSH2 0x1CDB DUP2 PUSH2 0x1C6F JUMP JUMPDEST DUP3 MSTORE POP POP JUMP JUMPDEST PUSH1 0x0 PUSH1 0x20 DUP3 ADD SWAP1 POP PUSH2 0x1CF6 PUSH1 0x0 DUP4 ADD DUP5 PUSH2 0x1CD2 JUMP JUMPDEST SWAP3 SWAP2 POP POP JUMP JUMPDEST PUSH1 0x0 DUP1 PUSH1 0x0 PUSH1 0x60 DUP5 DUP7 SUB SLT ISZERO PUSH2 0x1D15 JUMPI PUSH2 0x1D14 PUSH2 0x1C6A JUMP JUMPDEST JUMPDEST PUSH1 0x0 PUSH2 0x1D23 DUP7 DUP3 DUP8 ADD PUSH2 0x1C90 JUMP JUMPDEST SWAP4 POP POP PUSH1 0x20 PUSH2 0x1D34 DUP7 DUP3 DUP8 ADD PUSH2 0x1C90 JUMP JUMPDEST SWAP3 POP POP PUSH1 0x40 PUSH2 0x1D45 DUP7 DUP3 DUP8 ADD PUSH2 0x1C90 JUMP JUMPDEST SWAP2 POP POP SWAP3 POP SWAP3 POP SWAP3 JUMP JUMPDEST PUSH1 0x0 PUSH1 0x40 DUP3 ADD SWAP1 POP PUSH2 0x1D64 PUSH1 0x0 DUP4 ADD DUP6 PUSH2 0x1CD2 JUMP JUMPDEST PUSH2 0x1D71 PUSH1 0x20 DUP4 ADD DUP5 PUSH2 0x1CD2 JUMP JUMPDEST SWAP4 SWAP3 POP POP POP JUMP JUMPDEST PUSH1 0x0 PUSH20 0xFFFFFFFFFFFFFFFFFFFFFFFFFFFFFFFFFFFFFFFF DUP3 AND SWAP1 POP SWAP2 SWAP1 POP JUMP JUMPDEST PUSH1 0x0 PUSH2 0x1DA3 DUP3 PUSH2 0x1D78 JUMP JUMPDEST SWAP1 POP SWAP2 SWAP1 POP JUMP JUMPDEST PUSH2 0x1DB3 DUP2 PUSH2 0x1D98 JUMP JUMPDEST DUP3 MSTORE POP POP JUMP JUMPDEST PUSH1 0x0 PUSH1 0x20 DUP3 ADD SWAP1 POP PUSH2 0x1DCE PUSH1 0x0 DUP4 ADD DUP5 PUSH2 0x1DAA JUMP JUMPDEST SWAP3 SWAP2 POP POP JUMP JUMPDEST PUSH1 0x0 DUP1 PUSH1 0x40 DUP4 DUP6 SUB SLT ISZERO PUSH2 0x1DEB JUMPI PUSH2 0x1DEA PUSH2 0x1C6A JUMP JUMPDEST JUMPDEST PUSH1 0x0 PUSH2 0x1DF9 DUP6 DUP3 DUP7 ADD PUSH2 0x1C90 JUMP JUMPDEST SWAP3 POP POP PUSH1 0x20 PUSH2 0x1E0A DUP6 DUP3 DUP7 ADD PUSH2 0x1C90 JUMP JUMPDEST SWAP2 POP POP SWAP3 POP SWAP3 SWAP1 POP JUMP JUMPDEST PUSH2 0x1E1D DUP2 PUSH2 0x1D98 JUMP JUMPDEST DUP2 EQ PUSH2 0x1E28 JUMPI PUSH1 0x0 DUP1 REVERT JUMPDEST POP JUMP JUMPDEST PUSH1 0x0 DUP2 CALLDATALOAD SWAP1 POP PUSH2 0x1E3A DUP2 PUSH2 0x1E14 JUMP JUMPDEST SWAP3 SWAP2 POP POP JUMP JUMPDEST PUSH1 0x0 PUSH1 0x20 DUP3 DUP5 SUB SLT ISZERO PUSH2 0x1E56 JUMPI PUSH2 0x1E55 PUSH2 0x1C6A JUMP JUMPDEST JUMPDEST PUSH1 0x0 PUSH2 0x1E64 DUP5 DUP3 DUP6 ADD PUSH2 0x1E2B JUMP JUMPDEST SWAP2 POP POP SWAP3 SWAP2 POP POP JUMP JUMPDEST PUSH1 0x0 DUP3 DUP3 MSTORE PUSH1 0x20 DUP3 ADD SWAP1 POP SWAP3 SWAP2 POP POP JUMP JUMPDEST PUSH32 0x5A45524F5F535741500000000000000000000000000000000000000000000000 PUSH1 0x0 DUP3 ADD MSTORE POP JUMP JUMPDEST PUSH1 0x0 PUSH2 0x1EB4 PUSH1 0x9 DUP4 PUSH2 0x1E6D JUMP JUMPDEST SWAP2 POP PUSH2 0x1EBF DUP3 PUSH2 0x1E7E JUMP JUMPDEST PUSH1 0x20 DUP3 ADD SWAP1 POP SWAP2 SWAP1 POP JUMP JUMPDEST PUSH1 0x0 PUSH1 0x20 DUP3 ADD SWAP1 POP DUP2 DUP2 SUB PUSH1 0x0 DUP4 ADD MSTORE PUSH2 0x1EE3 DUP2 PUSH2 0x1EA7 JUMP JUMPDEST SWAP1 POP SWAP2 SWAP1 POP JUMP JUMPDEST PUSH32 0x4E487B7100000000000000000000000000000000000000000000000000000000 PUSH1 0x0 MSTORE PUSH1 0x11 PUSH1 0x4 MSTORE PUSH1 0x24 PUSH1 0x0 REVERT JUMPDEST PUSH1 0x0 PUSH2 0x1F24 DUP3 PUSH2 0x1C6F JUMP JUMPDEST SWAP2 POP PUSH2 0x1F2F DUP4 PUSH2 0x1C6F JUMP JUMPDEST SWAP3 POP DUP3 DUP3 ADD SWAP1 POP DUP1 DUP3 GT ISZERO PUSH2 0x1F47 JUMPI PUSH2 0x1F46 PUSH2 0x1EEA JUMP JUMPDEST JUMPDEST SWAP3 SWAP2 POP POP JUMP JUMPDEST PUSH1 0x0 PUSH2 0x1F58 DUP3 PUSH2 0x1C6F JUMP JUMPDEST SWAP2 POP PUSH2 0x1F63 DUP4 PUSH2 0x1C6F JUMP JUMPDEST SWAP3 POP DUP3 DUP3 SUB SWAP1 POP DUP2 DUP2 GT ISZERO PUSH2 0x1F7B JUMPI PUSH2 0x1F7A PUSH2 0x1EEA JUMP JUMPDEST JUMPDEST SWAP3 SWAP2 POP POP JUMP JUMPDEST PUSH32 0x5A45524F5F494E00000000000000000000000000000000000000000000000000 PUSH1 0x0 DUP3 ADD MSTORE POP JUMP JUMPDEST PUSH1 0x0 PUSH2 0x1FB7 PUSH1 0x7 DUP4 PUSH2 0x1E6D JUMP JUMPDEST SWAP2 POP PUSH2 0x1FC2 DUP3 PUSH2 0x1F81 JUMP JUMPDEST PUSH1 0x20 DUP3 ADD SWAP1 POP SWAP2 SWAP1 POP JUMP JUMPDEST PUSH1 0x0 PUSH1 0x20 DUP3 ADD SWAP1 POP DUP2 DUP2 SUB PUSH1 0x0 DUP4 ADD MSTORE PUSH2 0x1FE6 DUP2 PUSH2 0x1FAA JUMP JUMPDEST SWAP1 POP SWAP2 SWAP1 POP JUMP JUMPDEST PUSH32 0x4E4F5F4C49510000000000000000000000000000000000000000000000000000 PUSH1 0x0 DUP3 ADD MSTORE POP JUMP JUMPDEST PUSH1 0x0 PUSH2 0x2023 PUSH1 0x6 DUP4 PUSH2 0x1E6D JUMP JUMPDEST SWAP2 POP PUSH2 0x202E DUP3 PUSH2 0x1FED JUMP JUMPDEST PUSH1 0x20 DUP3 ADD SWAP1 POP SWAP2 SWAP1 POP JUMP JUMPDEST PUSH1 0x0 PUSH1 0x20 DUP3 ADD SWAP1 POP DUP2 DUP2 SUB PUSH1 0x0 DUP4 ADD MSTORE PUSH2 0x2052 DUP2 PUSH2 0x2016 JUMP JUMPDEST SWAP1 POP SWAP2 SWAP1 POP JUMP JUMPDEST PUSH1 0x0 PUSH2 0x2064 DUP3 PUSH2 0x1C6F JUMP JUMPDEST SWAP2 POP PUSH2 0x206F DUP4 PUSH2 0x1C6F JUMP JUMPDEST SWAP3 POP DUP3 DUP3 MUL PUSH2 0x207D DUP2 PUSH2 0x1C6F JUMP JUMPDEST SWAP2 POP DUP3 DUP3 DIV DUP5 EQ DUP4 ISZERO OR PUSH2 0x2094 JUMPI PUSH2 0x2093 PUSH2 0x1EEA JUMP JUMPDEST JUMPDEST POP SWAP3 SWAP2 POP POP JUMP JUMPDEST PUSH32 0x4E487B7100000000000000000000000000000000000000000000000000000000 PUSH1 0x0 MSTORE PUSH1 0x12 PUSH1 0x4 MSTORE PUSH1 0x24 PUSH1 0x0 REVERT JUMPDEST PUSH1 0x0 PUSH2 0x20D5 DUP3 PUSH2 0x1C6F JUMP JUMPDEST SWAP2 POP PUSH2 0x20E0 DUP4 PUSH2 0x1C6F JUMP JUMPDEST SWAP3 POP DUP3 PUSH2 0x20F0 JUMPI PUSH2 0x20EF PUSH2 0x209B JUMP JUMPDEST JUMPDEST DUP3 DUP3 DIV SWAP1 POP SWAP3 SWAP2 POP POP JUMP JUMPDEST PUSH32 0x5A45524F5F414D4F554E54000000000000000000000000000000000000000000 PUSH1 0x0 DUP3 ADD MSTORE POP JUMP JUMPDEST PUSH1 0x0 PUSH2 0x2131 PUSH1 0xB DUP4 PUSH2 0x1E6D JUMP JUMPDEST SWAP2 POP PUSH2 0x213C DUP3 PUSH2 0x20FB JUMP JUMPDEST PUSH1 0x20 DUP3 ADD SWAP1 POP SWAP2 SWAP1 POP JUMP JUMPDEST PUSH1 0x0 PUSH1 0x20 DUP3 ADD SWAP1 POP DUP2 DUP2 SUB PUSH1 0x0 DUP4 ADD MSTORE PUSH2 0x2160 DUP2 PUSH2 0x2124 JUMP JUMPDEST SWAP1 POP SWAP2 SWAP1 POP JUMP JUMPDEST PUSH32 0x4E4F545F454E4F5547485F4C5000000000000000000000000000000000000000 PUSH1 0x0 DUP3 ADD MSTORE POP JUMP JUMPDEST PUSH1 0x0 PUSH2 0x219D PUSH1 0xD DUP4 PUSH2 0x1E6D JUMP JUMPDEST SWAP2 POP PUSH2 0x21A8 DUP3 PUSH2 0x2167 JUMP JUMPDEST PUSH1 0x20 DUP3 ADD SWAP1 POP SWAP2 SWAP1 POP JUMP JUMPDEST PUSH1 0x0 PUSH1 0x20 DUP3 ADD SWAP1 POP DUP2 DUP2 SUB PUSH1 0x0 DUP4 ADD MSTORE PUSH2 0x21CC DUP2 PUSH2 0x2190 JUMP JUMPDEST SWAP1 POP SWAP2 SWAP1 POP JUMP JUMPDEST PUSH1 0x0 PUSH1 0x60 DUP3 ADD SWAP1 POP PUSH2 0x21E8 PUSH1 0x0 DUP4 ADD DUP7 PUSH2 0x1CD2 JUMP JUMPDEST PUSH2 0x21F5 PUSH1 0x20 DUP4 ADD DUP6 PUSH2 0x1CD2 JUMP JUMPDEST PUSH2 0x2202 PUSH1 0x40 DUP4 ADD DUP5 PUSH2 0x1CD2 JUMP JUMPDEST SWAP5 SWAP4 POP POP POP POP JUMP JUMPDEST PUSH32 0x4241445F524154494F0000000000000000000000000000000000000000000000 PUSH1 0x0 DUP3 ADD MSTORE POP JUMP JUMPDEST PUSH1 0x0 PUSH2 0x2240 PUSH1 0x9 DUP4 PUSH2 0x1E6D JUMP JUMPDEST SWAP2 POP PUSH2 0x224B DUP3 PUSH2 0x220A JUMP JUMPDEST PUSH1 0x20 DUP3 ADD SWAP1 POP SWAP2 SWAP1 POP JUMP JUMPDEST PUSH1 0x0 PUSH1 0x20 DUP3 ADD SWAP1 POP DUP2 DUP2 SUB PUSH1 0x0 DUP4 ADD MSTORE PUSH2 0x226F DUP2 PUSH2 0x2233 JUMP JUMPDEST SWAP1 POP SWAP2 SWAP1 POP JUMP JUMPDEST PUSH32 0x5A45524F5F4C4951554944495459000000000000000000000000000000000000 PUSH1 0x0 DUP3 ADD MSTORE POP JUMP JUMPDEST PUSH1 0x0 PUSH2 0x22AC PUSH1 0xE DUP4 PUSH2 0x1E6D JUMP JUMPDEST SWAP2 POP PUSH2 0x22B7 DUP3 PUSH2 0x2276 JUMP JUMPDEST PUSH1 0x20 DUP3 ADD SWAP1 POP SWAP2 SWAP1 POP JUMP JUMPDEST PUSH1 0x0 PUSH1 0x20 DUP3 ADD SWAP1 POP DUP2 DUP2 SUB PUSH1 0x0 DUP4 ADD MSTORE PUSH2 0x22DB DUP2 PUSH2 0x229F JUMP JUMPDEST SWAP1 POP SWAP2 SWAP1 POP JUMP JUMPDEST PUSH32 0x5265656E7472616E637947756172643A207265656E7472616E742063616C6C00 PUSH1 0x0 DUP3 ADD MSTORE POP JUMP JUMPDEST PUSH1 0x0 PUSH2 0x2318 PUSH1 0x1F DUP4 PUSH2 0x1E6D JUMP JUMPDEST SWAP2 POP PUSH2 0x2323 DUP3 PUSH2 0x22E2 JUMP JUMPDEST PUSH1 0x20 DUP3 ADD SWAP1 POP SWAP2 SWAP1 POP JUMP JUMPDEST PUSH1 0x0 PUSH1 0x20 DUP3 ADD SWAP1 POP DUP2 DUP2 SUB PUSH1 0x0 DUP4 ADD MSTORE PUSH2 0x2347 DUP2 PUSH2 0x230B JUMP JUMPDEST SWAP1 POP SWAP2 SWAP1 POP JUMP JUMPDEST PUSH1 0x0 PUSH1 0x60 DUP3 ADD SWAP1 POP PUSH2 0x2363 PUSH1 0x0 DUP4 ADD DUP7 PUSH2 0x1DAA JUMP JUMPDEST PUSH2 0x2370 PUSH1 0x20 DUP4 ADD DUP6 PUSH2 0x1DAA JUMP JUMPDEST PUSH2 0x237D PUSH1 0x40 DUP4 ADD DUP5 PUSH2 0x1CD2 JUMP JUMPDEST SWAP5 SWAP4 POP POP POP POP JUMP JUMPDEST PUSH1 0x0 PUSH1 0x40 DUP3 ADD SWAP1 POP PUSH2 0x239A PUSH1 0x0 DUP4 ADD DUP6 PUSH2 0x1DAA JUMP JUMPDEST PUSH2 0x23A7 PUSH1 0x20 DUP4 ADD DUP5 PUSH2 0x1CD2 JUMP JUMPDEST SWAP4 SWAP3 POP POP POP JUMP JUMPDEST PUSH1 0x0 DUP2 ISZERO ISZERO SWAP1 POP SWAP2 SWAP1 POP JUMP JUMPDEST PUSH2 0x23C3 DUP2 PUSH2 0x23AE JUMP JUMPDEST DUP2 EQ PUSH2 0x23CE JUMPI PUSH1 0x0 DUP1 REVERT JUMPDEST POP JUMP JUMPDEST PUSH1 0x0 DUP2 MLOAD SWAP1 POP PUSH2 0x23E0 DUP2 PUSH2 0x23BA JUMP JUMPDEST SWAP3 SWAP2 POP POP JUMP JUMPDEST PUSH1 0x0 PUSH1 0x20 DUP3 DUP5 SUB SLT ISZERO PUSH2 0x23FC JUMPI PUSH2 0x23FB PUSH2 0x1C6A JUMP JUMPDEST JUMPDEST PUSH1 0x0 PUSH2 0x240A DUP5 DUP3 DUP6 ADD PUSH2 0x23D1 JUMP JUMPDEST SWAP2 POP POP SWAP3 SWAP2 POP POP JUMP JUMPDEST PUSH32 0x5361666545524332303A204552433230206F7065726174696F6E20646964206E PUSH1 0x0 DUP3 ADD MSTORE PUSH32 0x6F74207375636365656400000000000000000000000000000000000000000000 PUSH1 0x20 DUP3 ADD MSTORE POP JUMP JUMPDEST PUSH1 0x0 PUSH2 0x246F PUSH1 0x2A DUP4 PUSH2 0x1E6D JUMP JUMPDEST SWAP2 POP PUSH2 0x247A DUP3 PUSH2 0x2413 JUMP JUMPDEST PUSH1 0x40 DUP3 ADD SWAP1 POP SWAP2 SWAP1 POP JUMP JUMPDEST PUSH1 0x0 PUSH1 0x20 DUP3 ADD SWAP1 POP DUP2 DUP2 SUB PUSH1 0x0 DUP4 ADD MSTORE PUSH2 0x249E DUP2 PUSH2 0x2462 JUMP JUMPDEST SWAP1 POP SWAP2 SWAP1 POP JUMP JUMPDEST PUSH32 0x416464726573733A20696E73756666696369656E742062616C616E636520666F PUSH1 0x0 DUP3 ADD MSTORE PUSH32 0x722063616C6C0000000000000000000000000000000000000000000000000000 PUSH1 0x20 DUP3 ADD MSTORE POP JUMP JUMPDEST PUSH1 0x0 PUSH2 0x2501 PUSH1 0x26 DUP4 PUSH2 0x1E6D JUMP JUMPDEST SWAP2 POP PUSH2 0x250C DUP3 PUSH2 0x24A5 JUMP JUMPDEST PUSH1 0x40 DUP3 ADD SWAP1 POP SWAP2 SWAP1 POP JUMP JUMPDEST PUSH1 0x0 PUSH1 0x20 DUP3 ADD SWAP1 POP DUP2 DUP2 SUB PUSH1 0x0 DUP4 ADD MSTORE PUSH2 0x2530 DUP2 PUSH2 0x24F4 JUMP JUMPDEST SWAP1 POP SWAP2 SWAP1 POP JUMP JUMPDEST PUSH1 0x0 DUP2 MLOAD SWAP1 POP SWAP2 SWAP1 POP JUMP JUMPDEST PUSH1 0x0 DUP2 SWAP1 POP SWAP3 SWAP2 POP POP JUMP JUMPDEST PUSH1 0x0 JUMPDEST DUP4 DUP2 LT ISZERO PUSH2 0x256B JUMPI DUP1 DUP3 ADD MLOAD DUP2 DUP5 ADD MSTORE PUSH1 0x20 DUP2 ADD SWAP1 POP PUSH2 0x2550 JUMP JUMPDEST PUSH1 0x0 DUP5 DUP5 ADD MSTORE POP POP POP POP JUMP JUMPDEST PUSH1 0x0 PUSH2 0x2582 DUP3 PUSH2 0x2537 JUMP JUMPDEST PUSH2 0x258C DUP2 DUP6 PUSH2 0x2542 JUMP JUMPDEST SWAP4 POP PUSH2 0x259C DUP2 DUP6 PUSH1 0x20 DUP7 ADD PUSH2 0x254D JUMP JUMPDEST DUP1 DUP5 ADD SWAP2 POP POP SWAP3 SWAP2 POP POP JUMP JUMPDEST PUSH1 0x0 PUSH2 0x25B4 DUP3 DUP5 PUSH2 0x2577 JUMP JUMPDEST SWAP2 POP DUP2 SWAP1 POP SWAP3 SWAP2 POP POP JUMP JUMPDEST PUSH32 0x416464726573733A2063616C6C20746F206E6F6E2D636F6E7472616374000000 PUSH1 0x0 DUP3 ADD MSTORE POP JUMP JUMPDEST PUSH1 0x0 PUSH2 0x25F5 PUSH1 0x1D DUP4 PUSH2 0x1E6D JUMP JUMPDEST SWAP2 POP PUSH2 0x2600 DUP3 PUSH2 0x25BF JUMP JUMPDEST PUSH1 0x20 DUP3 ADD SWAP1 POP SWAP2 SWAP1 POP JUMP JUMPDEST PUSH1 0x0 PUSH1 0x20 DUP3 ADD SWAP1 POP DUP2 DUP2 SUB PUSH1 0x0 DUP4 ADD MSTORE PUSH2 0x2624 DUP2 PUSH2 0x25E8 JUMP JUMPDEST SWAP1 POP SWAP2 SWAP1 POP JUMP JUMPDEST PUSH1 0x0 DUP2 MLOAD SWAP1 POP SWAP2 SWAP1 POP JUMP JUMPDEST PUSH1 0x0 PUSH1 0x1F NOT PUSH1 0x1F DUP4 ADD AND SWAP1 POP SWAP2 SWAP1 POP JUMP JUMPDEST PUSH1 0x0 PUSH2 0x2652 DUP3 PUSH2 0x262B JUMP JUMPDEST PUSH2 0x265C DUP2 DUP6 PUSH2 0x1E6D JUMP JUMPDEST SWAP4 POP PUSH2 0x266C DUP2 DUP6 PUSH1 0x20 DUP7 ADD PUSH2 0x254D JUMP JUMPDEST PUSH2 0x2675 DUP2 PUSH2 0x2636 JUMP JUMPDEST DUP5 ADD SWAP2 POP POP SWAP3 SWAP2 POP POP JUMP JUMPDEST PUSH1 0x0 PUSH1 0x20 DUP3 ADD SWAP1 POP DUP2 DUP2 SUB PUSH1 0x0 DUP4 ADD MSTORE PUSH2 0x269A DUP2 DUP5 PUSH2 0x2647 JUMP JUMPDEST SWAP1 POP SWAP3 SWAP2 POP POP JUMP INVALID LOG2 PUSH5 0x6970667358 0x22 SLT KECCAK256 LOG0 PUSH16 0xD940C3DFC0F79D446F5DEBC2ECA02D87 DUP2 0xE POP 0xB1 0xDB 0xC7 SDIV PUSH7 0x7F1064F2800664 PUSH20 0x6F6C634300081300330000000000000000000000 "},"methodIdentifiers":{"addLiquidity(uint256,uint256)":"9cd441da","getAmountOut(uint256,uint256,uint256)":"054d50d4","getPrice()":"98d5fdca","getReserves()":"0902f1ac","liquidity(address)":"b8c876b1","removeLiquidity(uint256)":"9c8f9f23","reserveA()":"dc5fa6c5","reserveB()":"19e36f3b","swapAForB(uint256)":"03102091","swapBForA(uint256)":"e619a498","tokenA()":"0fc63d10","tokenB()":"5f64b55b","totalLiquidity()":"15770f92"}}}}}