{
  "_format": "hh-sol-artifact-1",
  "contractName": "DEX",
  "sourceName": "contracts/DEX.sol",
  "abi": [
    {
      "inputs": [
        {
          "internalType": "address",
          "name": "_tokenA",
          "type": "address"
        },
        {
          "internalType": "address",
          "name": "_tokenB",
          "type": "address"
        }
      ],
      "stateMutability": "nonpayable",
      "type": "constructor"
    },
    {
      "anonymous": false,
      "inputs": [
        {
          "indexed": true,
          "internalType": "address",
          "name": "provider",
          "type": "address"
        },
        {
          "indexed": false,
          "internalType": "uint256",
          "name": "amountA",
          "type": "uint256"
        },
        {
          "indexed": false,
          "internalType": "uint256",
          "name": "amountB",
          "type": "uint256"
        },
        {
          "indexed": false,
          "internalType": "uint256",
          "name": "liquidityMinted",
          "type": "uint256"
        }
      ],
      "name": "LiquidityAdded",
      "type": "event"
    },
    {
      "anonymous": false,
      "inputs": [
        {
          "indexed": true,
          "internalType": "address",
          "name": "provider",
          "type": "address"
        },
        {
          "indexed": false,
          "internalType": "uint256",
          "name": "amountA",
          "type": "uint256"
        },
        {
          "indexed": false,
          "internalType": "uint256",
          "name": "amountB",
          "type": "uint256"
        },
        {
          "indexed": false,
          "internalType": "uint256",
          "name": "liquidityBurned",
          "type": "uint256"
        }
      ],
      "name": "LiquidityRemoved",
      "type": "event"
    },
    {
      "anonymous": false,
      "inputs": [
        {
          "indexed": true,
          "internalType": "address",
          "name": "trader",
          "type": "address"
        },
        {
          "indexed": true,
          "internalType": "address",
          "name": "tokenIn",
          "type": "address"
        },
        {
          "indexed": true,
          "internalType": "address",
          "name": "tokenOut",
          "type": "address"
        },
        {
          "indexed": false,
          "internalType": "uint256",
          "name": "amountIn",
          "type": "uint256"
        },
        {
          "indexed": false,
          "internalType": "uint256",
          "name": "amountOut",
          "type": "uint256"
        }
      ],
      "name": "Swap",
      "type": "event"
    },
    {
      "inputs": [
        {
          "internalType": "uint256",
          "name": "amountA",
          "type": "uint256"
        },
        {
          "internalType": "uint256",
          "name": "amountB",
          "type": "uint256"
        }
      ],
      "name": "addLiquidity",
      "outputs": [
        {
          "internalType": "uint256",
          "name": "liquidityMinted",
          "type": "uint256"
        }
      ],
      "stateMutability": "nonpayable",
      "type": "function"
    },
    {
      "inputs": [
        {
          "internalType": "uint256",
          "name": "amountIn",
          "type": "uint256"
        },
        {
          "internalType": "uint256",
          "name": "reserveIn",
          "type": "uint256"
        },
        {
          "internalType": "uint256",
          "name": "reserveOut",
          "type": "uint256"
        }
      ],
      "name": "getAmountOut",
      "outputs": [
        {
          "internalType": "uint256",
          "name": "amountOut",
          "type": "uint256"
        }
      ],
      "stateMutability": "pure",
      "type": "function"
    },
    {
      "inputs": [],
      "name": "getPrice",
      "outputs": [
        {
          "internalType": "uint256",
          "name": "price",
          "type": "uint256"
        }
      ],
      "stateMutability": "view",
      "type": "function"
    },
    {
      "inputs": [],
      "name": "getReserves",
      "outputs": [
        {
          "internalType": "uint256",
          "name": "_reserveA",
          "type": "uint256"
        },
        {
          "internalType": "uint256",
          "name": "_reserveB",
          "type": "uint256"
        }
      ],
      "stateMutability": "view",
      "type": "function"
    },
    {
      "inputs": [
        {
          "internalType": "address",
          "name": "",
          "type": "address"
        }
      ],
      "name": "liquidity",
      "outputs": [
        {
          "internalType": "uint256",
          "name": "",
          "type": "uint256"
        }
      ],
      "stateMutability": "view",
      "type": "function"
    },
    {
      "inputs": [
        {
          "internalType": "uint256",
          "name": "liquidityAmount",
          "type": "uint256"
        }
      ],
      "name": "removeLiquidity",
      "outputs": [
        {
          "internalType": "uint256",
          "name": "amountA",
          "type": "uint256"
        },
        {
          "internalType": "uint256",
          "name": "amountB",
          "type": "uint256"
        }
      ],
      "stateMutability": "nonpayable",
      "type": "function"
    },
    {
      "inputs": [],
      "name": "reserveA",
      "outputs": [
        {
          "internalType": "uint256",
          "name": "",
          "type": "uint256"
        }
      ],
      "stateMutability": "view",
      "type": "function"
    },
    {
      "inputs": [],
      "name": "reserveB",
      "outputs": [
        {
          "internalType": "uint256",
          "name": "",
          "type": "uint256"
        }
      ],
      "stateMutability": "view",
      "type": "function"
    },
    {
      "inputs": [
        {
          "internalType": "uint256",
          "name": "amountAIn",
          "type": "uint256"
        }
      ],
      "name": "swapAForB",
      "outputs": [
        {
          "internalType": "uint256",
          "name": "amountBOut",
          "type": "uint256"
        }
      ],
      "stateMutability": "nonpayable",
      "type": "function"
    },
    {
      "inputs": [
        {
          "internalType": "uint256",
          "name": "amountBIn",
          "type": "uint256"
        }
      ],
      "name": "swapBForA",
      "outputs": [
        {
          "internalType": "uint256",
          "name": "amountAOut",
          "type": "uint256"
        }
      ],
      "stateMutability": "nonpayable",
      "type": "function"
    },
    {
      "inputs": [],
      "name": "tokenA",
      "outputs": [
        {
          "internalType": "address",
          "name": "",
          "type": "address"
        }
      ],
      "stateMutability": "view",
      "type": "function"
    },
    {
      "inputs": [],
      "name": "tokenB",
      "outputs": [
        {
          "internalType": "address",
          "name": "",
          "type": "address"
        }
      ],
      "stateMutability": "view",
      "type": "function"
    },
    {
      "inputs": [],
      "name": "totalLiquidity",
      "outputs": [
        {
          "internalType": "uint256",
          "name": "",
          "type": "uint256"
        }
      ],
      "stateMutability": "view",
      "type": "function"
    }
  ],
  "bytecode": "0x60806040523480156200001157600080fd5b5060405162002a1d38038062002a1d83398181016040528101906200003791906200026b565b60016000819055506200005b678e6fafc1a487096760c01b620001fe60201b60201c565b620000776717d6e1c00d70a89360c01b620001fe60201b60201c565b6200009367735b99c85f381aa760c01b620001fe60201b60201c565b620000af6764aae7211ab6c09260c01b620001fe60201b60201c565b8073ffffffffffffffffffffffffffffffffffffffff168273ffffffffffffffffffffffffffffffffffffffff160362000120576040517f08c379a0000000000000000000000000000000000000000000000000000000008152600401620001179062000313565b60405180910390fd5b6200013c67601e86057923728c60c01b620001fe60201b60201c565b62000158676f19f44f64dac67060c01b620001fe60201b60201c565b81600160006101000a81548173ffffffffffffffffffffffffffffffffffffffff021916908373ffffffffffffffffffffffffffffffffffffffff160217905550620001b567b3b07e3689e90f9760c01b620001fe60201b60201c565b80600260006101000a81548173ffffffffffffffffffffffffffffffffffffffff021916908373ffffffffffffffffffffffffffffffffffffffff160217905550505062000335565b50565b600080fd5b600073ffffffffffffffffffffffffffffffffffffffff82169050919050565b6000620002338262000206565b9050919050565b620002458162000226565b81146200025157600080fd5b50565b60008151905062000265816200023a565b92915050565b6000806040838503121562000285576200028462000201565b5b6000620002958582860162000254565b9250506020620002a88582860162000254565b9150509250929050565b600082825260208201905092915050565b7f4944454e544943414c5f544f4b454e5300000000000000000000000000000000600082015250565b6000620002fb601083620002b2565b91506200030882620002c3565b602082019050919050565b600060208201905081810360008301526200032e81620002ec565b9050919050565b6126d880620003456000396000f3fe608060405234801561001057600080fd5b50600436106100cf5760003560e01c80635f64b55b1161008c5780639cd441da116100665780639cd441da1461021a578063b8c876b11461024a578063dc5fa6c51461027a578063e619a49814610298576100cf565b80635f64b55b146101ad57806398d5fdca146101cb5780639c8f9f23146101e9576100cf565b806303102091146100d4578063054d50d4146101045780630902f1ac146101345780630fc63d101461015357806315770f921461017157806319e36f3b1461018f575b600080fd5b6100ee60048036038101906100e99190611ca5565b6102c8565b6040516100fb9190611ce1565b60405180910390f35b61011e60048036038101906101199190611cfc565b610603565b60405161012b9190611ce1565b60405180910390f35b61013c61082e565b60405161014a929190611d4f565b60405180910390f35b61015b61087b565b6040516101689190611db9565b60405180910390f35b6101796108a1565b6040516101869190611ce1565b60405180910390f35b6101976108a7565b6040516101a49190611ce1565b60405180910390f35b6101b56108ad565b6040516101c29190611db9565b60405180910390f35b6101d36108d3565b6040516101e09190611ce1565b60405180910390f35b61020360048036038101906101fe9190611ca5565b61099e565b604051610211929190611d4f565b60405180910390f35b610234600480360381019061022f9190611dd4565b610e0e565b6040516102419190611ce1565b60405180910390f35b610264600480360381019061025f9190611e40565b611354565b6040516102719190611ce1565b60405180910390f35b61028261136c565b60405161028f9190611ce1565b60405180910390f35b6102b260048036038101906102ad9190611ca5565b611372565b6040516102bf9190611ce1565b60405180910390f35b60006102de67139093f8c318a35f60c01b6116ab565b6102e66116ae565b6102fa672f0fee372902d75b60c01b6116ab565b61030e675d4c44fbc792c19460c01b6116ab565b61032267540de40f9deb4b0f60c01b6116ab565b61033667b5350f6dddb6bef760c01b6116ab565b61034a672f8bf35e258bf1e360c01b6116ab565b6000821161038d576040517f08c379a000000000000000000000000000000000000000000000000000000000815260040161038490611eca565b60405180910390fd5b6103a1676812d3aa5912318e60c01b6116ab565b6103b5670205ed9868928db060c01b6116ab565b6103c96706cb56ce6eff387560c01b6116ab565b610418333084600160009054906101000a900473ffffffffffffffffffffffffffffffffffffffff1673ffffffffffffffffffffffffffffffffffffffff166116fd909392919063ffffffff16565b61042c67348fcccdf5e31bef60c01b6116ab565b61043b82600354600454610603565b9050610451678a5f0c37b2a3fa8f60c01b6116ab565b81600360008282546104639190611f19565b9250508190555061047e67bf9ca274f8c160d760c01b6116ab565b80600460008282546104909190611f4d565b925050819055506104ab67cb98078c699b9fd960c01b6116ab565b6104bf6760c50211bf1342cd60c01b6116ab565b61050c3382600260009054906101000a900473ffffffffffffffffffffffffffffffffffffffff1673ffffffffffffffffffffffffffffffffffffffff166117869092919063ffffffff16565b6105206763c7be7e21d9ff7660c01b6116ab565b61053467a3f6e91905fb296460c01b6116ab565b600260009054906101000a900473ffffffffffffffffffffffffffffffffffffffff1673ffffffffffffffffffffffffffffffffffffffff16600160009054906101000a900473ffffffffffffffffffffffffffffffffffffffff1673ffffffffffffffffffffffffffffffffffffffff163373ffffffffffffffffffffffffffffffffffffffff167fcd3829a3813dc3cdd188fd3d01dcf3268c16be2fdd2dd21d0665418816e4606285856040516105ee929190611d4f565b60405180910390a46105fe61180c565b919050565b600061061967ae2f862056bc329c60c01b6116ab565b61062d67a6c6a7b816d7c10c60c01b6116ab565b610641676fd6ad6b50a86eb760c01b6116ab565b61065567fcf89f619565323a60c01b6116ab565b60008411610698576040517f08c379a000000000000000000000000000000000000000000000000000000000815260040161068f90611fcd565b60405180910390fd5b6106ac672d78754a40e5d4b160c01b6116ab565b6106c067f704b5f91dbc517a60c01b6116ab565b6106d4672e2b0302104f5d2660c01b6116ab565b6106e867844b7c0562a0ad6660c01b6116ab565b6000831180156106f85750600082115b610737576040517f08c379a000000000000000000000000000000000000000000000000000000000815260040161072e90612039565b60405180910390fd5b61074b67f9233b8cceec98a260c01b6116ab565b61075f67a7190270043e562260c01b6116ab565b61077367962ae589aede901c60c01b6116ab565b60006103e5856107839190612059565b90506107996795e11089126012cc60c01b6116ab565b6107ad67668a90e8a324823b60c01b6116ab565b600083826107bb9190612059565b90506107d167adb58cb032993f6560c01b6116ab565b6107e5671beced2b43ab1ee460c01b6116ab565b6000826103e8876107f69190612059565b6108009190611f19565b90506108166785c106fb572b362160c01b6116ab565b808261082291906120ca565b93505050509392505050565b60008061084567452d496a849c444b60c01b6116ab565b61085967a1260debcaa4980260c01b6116ab565b61086d678927c4ee8b411a6960c01b6116ab565b600354600454915091509091565b600160009054906101000a900473ffffffffffffffffffffffffffffffffffffffff1681565b60055481565b60045481565b600260009054906101000a900473ffffffffffffffffffffffffffffffffffffffff1681565b60006108e967f72132c81f838c8560c01b6116ab565b6108fd675f57d30bfd4895d660c01b6116ab565b61091167966f8e2110209e7860c01b6116ab565b60006003540361094c5761092f6749a685362020e17160c01b6116ab565b6109436774d000d77446428d60c01b6116ab565b6000905061099b565b61096067f3a4cccc5cdeeb0e60c01b6116ab565b61097467dd7d7b4fee5e8a2460c01b6116ab565b6109886767b1553ea830595960c01b6116ab565b60035460045461099891906120ca565b90505b90565b6000806109b5674e04e766ccc4936460c01b6116ab565b6109bd6116ae565b6109d167025e94ae2c3ef9ea60c01b6116ab565b6109e567aad70076c195f5e160c01b6116ab565b6109f967da8771bd9241996e60c01b6116ab565b610a0d676ffd78fef64a1f6960c01b6116ab565b610a2167609a7a8e393c82ff60c01b6116ab565b60008311610a64576040517f08c379a0000000000000000000000000000000000000000000000000000000008152600401610a5b90612147565b60405180910390fd5b610a786783aa11b5c109ea3760c01b6116ab565b610a8c67253578a76622ba0d60c01b6116ab565b610aa067f8b7c1ec400072e560c01b6116ab565b610ab46786e4cb6b0031c3e160c01b6116ab565b82600660003373ffffffffffffffffffffffffffffffffffffffff1673ffffffffffffffffffffffffffffffffffffffff168152602001908152602001600020541015610b36576040517f08c379a0000000000000000000000000000000000000000000000000000000008152600401610b2d906121b3565b60405180910390fd5b610b4a675471ef3207d988b860c01b6116ab565b610b5e67ecdf46c5c7cb9e2b60c01b6116ab565b60055460035484610b6f9190612059565b610b7991906120ca565b9150610b8f6732e11753c0fef0d960c01b6116ab565b60055460045484610ba09190612059565b610baa91906120ca565b9050610bc067fbe8bef10071925360c01b6116ab565b82600660003373ffffffffffffffffffffffffffffffffffffffff1673ffffffffffffffffffffffffffffffffffffffff1681526020019081526020016000206000828254610c0f9190611f4d565b92505081905550610c2a672897463866f52f9260c01b6116ab565b8260056000828254610c3c9190611f4d565b92505081905550610c5767d1b876c7b9ad8f7860c01b6116ab565b8160036000828254610c699190611f4d565b92505081905550610c84678988ff66b27e1ffe60c01b6116ab565b8060046000828254610c969190611f4d565b92505081905550610cb167ab7dd7d86132446860c01b6116ab565b610cc567cd1b9915bdda306360c01b6116ab565b610d123383600160009054906101000a900473ffffffffffffffffffffffffffffffffffffffff1673ffffffffffffffffffffffffffffffffffffffff166117869092919063ffffffff16565b610d26677f95eb80cf75835260c01b6116ab565b610d3a67fed106ca89cd01d360c01b6116ab565b610d873382600260009054906101000a900473ffffffffffffffffffffffffffffffffffffffff1673ffffffffffffffffffffffffffffffffffffffff166117869092919063ffffffff16565b610d9b671aeb314cfcf5f1e360c01b6116ab565b610daf67883e8d9e704bd4b460c01b6116ab565b3373ffffffffffffffffffffffffffffffffffffffff167f1dc8bb69df2b8e91fbdcbfcf93d951b3f0000f085a95fe3f7946d6161439245d838386604051610df9939291906121d3565b60405180910390a2610e0961180c565b915091565b6000610e24679a72685b8188c68460c01b6116ab565b610e2c6116ae565b610e40672264e43063b5528e60c01b6116ab565b610e5467efe348eb2eee6de460c01b6116ab565b610e686716322f469713450e60c01b6116ab565b610e7c67e2ea5a187084f88360c01b6116ab565b610e90671065aefffecf03f160c01b6116ab565b600083118015610ea05750600082115b610edf576040517f08c379a0000000000000000000000000000000000000000000000000000000008152600401610ed690612147565b60405180910390fd5b610ef36709c5e3f141a5414060c01b6116ab565b610f0767c57c62822ce8735e60c01b6116ab565b610f1b6768e0dcaf2209bd3260c01b6116ab565b610f6a333085600160009054906101000a900473ffffffffffffffffffffffffffffffffffffffff1673ffffffffffffffffffffffffffffffffffffffff166116fd909392919063ffffffff16565b610f7e675211de116b8ace3060c01b6116ab565b610f926736e434ec7e1080ac60c01b6116ab565b610fe1333084600260009054906101000a900473ffffffffffffffffffffffffffffffffffffffff1673ffffffffffffffffffffffffffffffffffffffff166116fd909392919063ffffffff16565b610ff567383ea8b3463c53d760c01b6116ab565b6110096723de50e2367edc8b60c01b6116ab565b60006005540361105657611027679d49e572bbf8f74060c01b6116ab565b61103b67c08488370c4c61d460c01b6116ab565b61104f828461104a9190612059565b611816565b9050611148565b61106a674ef366d251689b0560c01b6116ab565b61107e67e4725307c122627860c01b6116ab565b611092674e198db302260c7560c01b6116ab565b6110a667330e18e8489c545e60c01b6116ab565b826004546110b49190612059565b826003546110c29190612059565b14611102576040517f08c379a00000000000000000000000000000000000000000000000000000000081526004016110f990612256565b60405180910390fd5b6111166762b9d595eb09f23260c01b6116ab565b61112a674a346fab76c7ac1f60c01b6116ab565b6003546005548461113b9190612059565b61114591906120ca565b90505b61115c67520e24a6206ce8ba60c01b6116ab565b61117067267ef47893cb107460c01b6116ab565b61118467ce7e4cbb247f5d3560c01b6116ab565b600081116111c7576040517f08c379a00000000000000000000000000000000000000000000000000000000081526004016111be906122c2565b60405180910390fd5b6111db6747fd82eea3e8e2bc60c01b6116ab565b6111ef677725df995bb2140d60c01b6116ab565b80600660003373ffffffffffffffffffffffffffffffffffffffff1673ffffffffffffffffffffffffffffffffffffffff168152602001908152602001600020600082825461123e9190611f19565b9250508190555061125967b60df91049f9d98460c01b6116ab565b806005600082825461126b9190611f19565b92505081905550611286678a2fea300585ddaf60c01b6116ab565b82600360008282546112989190611f19565b925050819055506112b367797680eab0d2935a60c01b6116ab565b81600460008282546112c59190611f19565b925050819055506112e06785fd3f9c7afcf98260c01b6116ab565b6112f467504e9a73d6f1612260c01b6116ab565b3373ffffffffffffffffffffffffffffffffffffffff167f64b83944e79c3ce8d4c297411de637c3e102d064677aac0c163976ebdcd6f50e84848460405161133e939291906121d3565b60405180910390a261134e61180c565b92915050565b60066020528060005260406000206000915090505481565b60035481565b600061138867a4538951accf92d460c01b6116ab565b6113906116ae565b6113a4676e7ad74c06968a7360c01b6116ab565b6113b867b517114da1462b2560c01b6116ab565b6113cc671afbb9b317ee1fe660c01b6116ab565b6113e0675fd550124c3083fe60c01b6116ab565b6113f366e86e4fa9e06be660c01b6116ab565b60008211611436576040517f08c379a000000000000000000000000000000000000000000000000000000000815260040161142d90611eca565b60405180910390fd5b61144a674a452febc99fab6e60c01b6116ab565b61145e6762581e5f9f445eca60c01b6116ab565b61147166f17dc7de4d653b60c01b6116ab565b6114c0333084600260009054906101000a900473ffffffffffffffffffffffffffffffffffffffff1673ffffffffffffffffffffffffffffffffffffffff166116fd909392919063ffffffff16565b6114d467608a9ba0d05a36a360c01b6116ab565b6114e382600454600354610603565b90506114f967cf504e9267127e1960c01b6116ab565b816004600082825461150b9190611f19565b9250508190555061152667fd00cde3cefd1f9460c01b6116ab565b80600360008282546115389190611f4d565b925050819055506115536711a9983ed81fb39860c01b6116ab565b61156767e012944b18ca8d0660c01b6116ab565b6115b43382600160009054906101000a900473ffffffffffffffffffffffffffffffffffffffff1673ffffffffffffffffffffffffffffffffffffffff166117869092919063ffffffff16565b6115c86747020d1180844a5860c01b6116ab565b6115dc67a289f6d1e1ef9b1860c01b6116ab565b600160009054906101000a900473ffffffffffffffffffffffffffffffffffffffff1673ffffffffffffffffffffffffffffffffffffffff16600260009054906101000a900473ffffffffffffffffffffffffffffffffffffffff1673ffffffffffffffffffffffffffffffffffffffff163373ffffffffffffffffffffffffffffffffffffffff167fcd3829a3813dc3cdd188fd3d01dcf3268c16be2fdd2dd21d0665418816e460628585604051611696929190611d4f565b60405180910390a46116a661180c565b919050565b50565b6002600054036116f3576040517f08c379a00000000000000000000000000000000000000000000000000000000081526004016116ea9061232e565b60405180910390fd5b6002600081905550565b611780846323b872dd60e01b85858560405160240161171e9392919061234e565b604051602081830303815290604052907bffffffffffffffffffffffffffffffffffffffffffffffffffffffff19166020820180517bffffffffffffffffffffffffffffffffffffffffffffffffffffffff83818316178352505050506119d5565b50505050565b6118078363a9059cbb60e01b84846040516024016117a5929190612385565b604051602081830303815290604052907bffffffffffffffffffffffffffffffffffffffffffffffffffffffff19166020820180517bffffffffffffffffffffffffffffffffffffffffffffffffffffffff83818316178352505050506119d5565b505050565b6001600081905550565b600061182c67fd751de5660b754f60c01b6116ab565b61184067bce905d3d986821560c01b6116ab565b61185467b76741278ae68e7060c01b6116ab565b600382111561195957611871671f93820476d3f89f60c01b6116ab565b611885674793231edad212cf60c01b6116ab565b81905061189c67df48d36dc46a60cb60c01b6116ab565b6118b067b5751d211458857960c01b6116ab565b600060016002846118c191906120ca565b6118cb9190611f19565b90506118e167f376a1034a52fb7e60c01b6116ab565b6118f5678e500d896e06961460c01b6116ab565b5b818110156119535761191267c6e2be7ade49c94b60c01b6116ab565b809150611929677945b785d72a1cfa60c01b6116ab565b600281828561193891906120ca565b6119429190611f19565b61194c91906120ca565b90506118f6565b506119d0565b61196d67fb80f74426cd0fe460c01b6116ab565b61198167bd0b12833157d97160c01b6116ab565b600082146119ba5761199d675ebc1e36145d74b660c01b6116ab565b6119b16729b934b83460bb9f60c01b6116ab565b600190506119cf565b6119ce671bd436b9dabeb2e060c01b6116ab565b5b5b919050565b6000611a37826040518060400160405280602081526020017f5361666545524332303a206c6f772d6c6576656c2063616c6c206661696c65648152508573ffffffffffffffffffffffffffffffffffffffff16611a9d9092919063ffffffff16565b9050600081511480611a59575080806020019051810190611a5891906123e6565b5b611a98576040517f08c379a0000000000000000000000000000000000000000000000000000000008152600401611a8f90612485565b60405180910390fd5b505050565b6060611aac8484600085611ab5565b90509392505050565b606082471015611afa576040517f08c379a0000000000000000000000000000000000000000000000000000000008152600401611af190612517565b60405180910390fd5b6000808673ffffffffffffffffffffffffffffffffffffffff168587604051611b2391906125a8565b60006040518083038185875af1925050503d8060008114611b60576040519150601f19603f3d011682016040523d82523d6000602084013e611b65565b606091505b5091509150611b7687838387611b82565b92505050949350505050565b60608315611be4576000835103611bdc57611b9c85611bf7565b611bdb576040517f08c379a0000000000000000000000000000000000000000000000000000000008152600401611bd29061260b565b60405180910390fd5b5b829050611bef565b611bee8383611c1a565b5b949350505050565b6000808273ffffffffffffffffffffffffffffffffffffffff163b119050919050565b600082511115611c2d5781518083602001fd5b806040517f08c379a0000000000000000000000000000000000000000000000000000000008152600401611c619190612680565b60405180910390fd5b600080fd5b6000819050919050565b611c8281611c6f565b8114611c8d57600080fd5b50565b600081359050611c9f81611c79565b92915050565b600060208284031215611cbb57611cba611c6a565b5b6000611cc984828501611c90565b91505092915050565b611cdb81611c6f565b82525050565b6000602082019050611cf66000830184611cd2565b92915050565b600080600060608486031215611d1557611d14611c6a565b5b6000611d2386828701611c90565b9350506020611d3486828701611c90565b9250506040611d4586828701611c90565b9150509250925092565b6000604082019050611d646000830185611cd2565b611d716020830184611cd2565b9392505050565b600073ffffffffffffffffffffffffffffffffffffffff82169050919050565b6000611da382611d78565b9050919050565b611db381611d98565b82525050565b6000602082019050611dce6000830184611daa565b92915050565b60008060408385031215611deb57611dea611c6a565b5b6000611df985828601611c90565b9250506020611e0a85828601611c90565b9150509250929050565b611e1d81611d98565b8114611e2857600080fd5b50565b600081359050611e3a81611e14565b92915050565b600060208284031215611e5657611e55611c6a565b5b6000611e6484828501611e2b565b91505092915050565b600082825260208201905092915050565b7f5a45524f5f535741500000000000000000000000000000000000000000000000600082015250565b6000611eb4600983611e6d565b9150611ebf82611e7e565b602082019050919050565b60006020820190508181036000830152611ee381611ea7565b9050919050565b7f4e487b7100000000000000000000000000000000000000000000000000000000600052601160045260246000fd5b6000611f2482611c6f565b9150611f2f83611c6f565b9250828201905080821115611f4757611f46611eea565b5b92915050565b6000611f5882611c6f565b9150611f6383611c6f565b9250828203905081811115611f7b57611f7a611eea565b5b92915050565b7f5a45524f5f494e00000000000000000000000000000000000000000000000000600082015250565b6000611fb7600783611e6d565b9150611fc282611f81565b602082019050919050565b60006020820190508181036000830152611fe681611faa565b9050919050565b7f4e4f5f4c49510000000000000000000000000000000000000000000000000000600082015250565b6000612023600683611e6d565b915061202e82611fed565b602082019050919050565b6000602082019050818103600083015261205281612016565b9050919050565b600061206482611c6f565b915061206f83611c6f565b925082820261207d81611c6f565b9150828204841483151761209457612093611eea565b5b5092915050565b7f4e487b7100000000000000000000000000000000000000000000000000000000600052601260045260246000fd5b60006120d582611c6f565b91506120e083611c6f565b9250826120f0576120ef61209b565b5b828204905092915050565b7f5a45524f5f414d4f554e54000000000000000000000000000000000000000000600082015250565b6000612131600b83611e6d565b915061213c826120fb565b602082019050919050565b6000602082019050818103600083015261216081612124565b9050919050565b7f4e4f545f454e4f5547485f4c5000000000000000000000000000000000000000600082015250565b600061219d600d83611e6d565b91506121a882612167565b602082019050919050565b600060208201905081810360008301526121cc81612190565b9050919050565b60006060820190506121e86000830186611cd2565b6121f56020830185611cd2565b6122026040830184611cd2565b949350505050565b7f4241445f524154494f0000000000000000000000000000000000000000000000600082015250565b6000612240600983611e6d565b915061224b8261220a565b602082019050919050565b6000602082019050818103600083015261226f81612233565b9050919050565b7f5a45524f5f4c4951554944495459000000000000000000000000000000000000600082015250565b60006122ac600e83611e6d565b91506122b782612276565b602082019050919050565b600060208201905081810360008301526122db8161229f565b9050919050565b7f5265656e7472616e637947756172643a207265656e7472616e742063616c6c00600082015250565b6000612318601f83611e6d565b9150612323826122e2565b602082019050919050565b600060208201905081810360008301526123478161230b565b9050919050565b60006060820190506123636000830186611daa565b6123706020830185611daa565b61237d6040830184611cd2565b949350505050565b600060408201905061239a6000830185611daa565b6123a76020830184611cd2565b9392505050565b60008115159050919050565b6123c3816123ae565b81146123ce57600080fd5b50565b6000815190506123e0816123ba565b92915050565b6000602082840312156123fc576123fb611c6a565b5b600061240a848285016123d1565b91505092915050565b7f5361666545524332303a204552433230206f7065726174696f6e20646964206e60008201527f6f74207375636365656400000000000000000000000000000000000000000000602082015250565b600061246f602a83611e6d565b915061247a82612413565b604082019050919050565b6000602082019050818103600083015261249e81612462565b9050919050565b7f416464726573733a20696e73756666696369656e742062616c616e636520666f60008201527f722063616c6c0000000000000000000000000000000000000000000000000000602082015250565b6000612501602683611e6d565b915061250c826124a5565b604082019050919050565b60006020820190508181036000830152612530816124f4565b9050919050565b600081519050919050565b600081905092915050565b60005b8381101561256b578082015181840152602081019050612550565b60008484015250505050565b600061258282612537565b61258c8185612542565b935061259c81856020860161254d565b80840191505092915050565b60006125b48284612577565b915081905092915050565b7f416464726573733a2063616c6c20746f206e6f6e2d636f6e7472616374000000600082015250565b60006125f5601d83611e6d565b9150612600826125bf565b602082019050919050565b60006020820190508181036000830152612624816125e8565b9050919050565b600081519050919050565b6000601f19601f8301169050919050565b60006126528261262b565b61265c8185611e6d565b935061266c81856020860161254d565b61267581612636565b840191505092915050565b6000602082019050818103600083015261269a8184612647565b90509291505056fea2646970667358221220a06fd940c3dfc0f79d446f5debc2eca02d87810e50b1dbc705667f1064f2800664736f6c63430008130033",
  "linkReferences": {},
  "deployedLinkReferences": {}
}